S01700006279676765726E32345F6E6F6465322E7372656382
S113000071C000005DC100008CC000008AC0000007
S113001088C0000086C0000084C0000082C00000C8
S113002080C000007EC000007CC000007AC00000D8
S113003078C0000076C0000074C0000072C00000E8
S113004070C000006EC000006CC000006AC00000F8
S113005068C0000066C0000064C0000062C0000008
S113006060C000005EC000005CC000005AC0000018
S113007058C0000056C0000054C0000052C0000028
S113008050C000004EC000004CC000004AC0000038
S113009048C0000046C0000044C0000042C0000048
S11300A040C000003EC000003CC000003AC0000058
S11300B038C0000036C0000034C0000032C0000068
S11300C030C000002EC000002CC000002AC0000078
S11300D028C0000026C0000024C0000022C0000088
S11300E020C0000011241FBECFEFD1E2DEBFCDBF80
S11300F000E00CBF12E0A0E0B2E0E4E0FDE000E0CC
S11301000BBF02C007900D92A43FB107D9F722E0BC
S1130110A4EFB2E001C01D92AE3FB207E1F776D181
S1130120EFC56ECF2F9880EC8ED12F9A8FE39CE988
S11301300197F1F700C000000895CF93C82F2F98BE
S113014083E081D18C2F7FD180D12F9ACF910895D4
S11301502F9881E878D185B18F6785B908951F9369
S1130160CF93DF93182FD62FC42F2F9885E06BD110
S1130170812F69D18D2F67D18C2F65D12F9ADF9173
S1130180CF911F910895482F60EE8FE0E8DF8EE055
S1130190D4DF807E0895CF93DF93D82FC62F2F9876
S11301A082E051D18D2F4FD18C2F4DD12F9ADF91D9
S11301B0CF91089546D1B6DF8EE0BFDF982F907EB1
S11301C0903869F01F928F9386E092E09F938F930B
S11301D0D1D20F900F900F900F9081E0089540E6D8
S11301E060E680E6BCDF40E660E680E7B8DF60E01A
S11301F082E3D1DF80E0089580E0C5DF882339F011
S113020083E592E09F938F93B5D20F900F9043E0D4
S113021063E08BE2A4DF5098F894E9E6F0E0808193
S11302208D7F8083808181608083E89A78940895AB
S11302300F931F93CF93DF93EC01688181E3ABDFCE
S11302400981602F85E3A7DF2296002341F00A5C31
S113025016E36991812F9FDF1F5F1013FACF78DFB8
S11302602FEF80E792E0215080409040E1F700C0FA
S11302700000DF91CF911F910F9108950F931F9369
S1130280CF93DF93EB01182F1295107F81E6810F36
S113029054DF85E6810F51DF982F9F70998388235F
S11302A051F01A592296082F010F812F46DF8993A6
S11302B01F5F1013FACFDF91CF911F910F91089513
S11302C01F920F920FB60F9211240BB60F92FF924A
S11302D00F931F932F933F934F935F936F937F934A
S11302E08F939F93AF93BF93CF93DF93EF93FF933A
S11302F0F8948AE090E0CDD0EC018CE792E09F93F3
S11303008F9338D28CE219DF0F900F9080FF20C0BA
S113031040E061E08CE223DFBE0180E0AFDF898151
S1130320882309F444C0F12C0CE912E0FE01EF0D1E
S1130330F11D82811F928F931F930F931BD2F3940D
S11303400F900F900F900F908981F81678F32FC0BB
S113035081FF26C040E062E08CE201DFBE0181E063
S11303608DDF82EA92E09F938F9304D20F900F90D7
S113037089818823E1F0F12C0CE912E0FE01EF0DF4
S1130380F11D82811F928F931F930F93F3D1F394E6
S11303900F900F900F900F908981F81678F307C093
S11303A080EB92E09F938F93E5D10F900F90789418
S11303B0FF91EF91DF91CF91BF91AF919F918F9179
S11303C07F916F915F914F913F912F911F910F9169
S11303D0FF900F900BBE0F900FBE0F901F901895BB
S11303E08AE090E056D0FC0181E0808329E12283F9
S11303F096E293838FE5848325839683878390870E
S1130400818788E08183CF0113CF089587E690E048
S113041030D017D0CFDEF0DE8EED92E09F938F9335
S1130420A9D1DEDF0F900F90FFCF84B1876884B924
S1130430239881E58CBD08958EBD0DB407FEFDCFD4
S11304400895F3CF0895F8CF089580E0F5DF8EB5D1
S11304500895E0ECF0E0908195FFFDCF8093C60015
S11304600895E0ECF0E080818823ECF78091C600E9
S113047008959093C5008093C40088E18093C100DF
S11304808EE08093C20061E372E089E292E028C1C9
S11304900895CF93DF938230910510F482E090E0C9
S11304A0E091F602F091F70220E030E0A0E0B0E045
S11304B0309739F14081518148175907B8F04817EE
S11304C0590771F482819381109729F013969C93B4
S11304D08E9312972CC09093F7028093F60227C054
S11304E02115310531F04217530718F0A901DB013A
S11304F001C0EF019A01BD01DF010280F381E02D0B
S1130500D7CF21153105F9F0281B390B24303105DB
S113051080F48A819B816115710521F0FB0193832D
S1130520828304C09093F7028093F602FE01329610
S113053044C0FE01E20FF31F8193919322503109CD
S1130540398328833AC02091F4023091F502232B99
S113055041F420910202309103023093F50220937A
S1130560F40220910002309101022115310541F479
S11305702DB73EB74091040250910502241B350B60
S1130580E091F402F091F502E217F307A0F42E1BB8
S11305903F0B2817390778F0AC014E5F5F4F2417E3
S11305A0350748F04E0F5F1F5093F5024093F40255
S11305B08193919302C0E0E0F0E0CF01DF91CF910D
S11305C00895CF93DF93009709F487C0FC01329715
S11305D013821282C091F602D091F702209781F41F
S11305E020813181280F391F8091F4029091F50206
S11305F08217930779F5F093F502E093F4026DC046
S1130600DE0120E030E0AE17BF0750F412964D91A2
S11306105C9113979D014115510509F1DA01F3CF5E
S1130620B383A28340815181840F951F8A179B074E
S113063071F48D919C911197840F951F029691836B
S1130640808312968D919C911397938382832115B5
S1130650310529F4F093F702E093F6023EC0D90184
S11306601396FC93EE9312974D915D91A40FB51FD1
S1130670EA17FB0779F480819181840F951F029614
S1130680D90111969C938E938281938113969C93A6
S11306908E931297E0E0F0E08A819B81009719F035
S11306A0FE01EC01F9CFCE01029628813981820F37
S11306B0931F2091F4023091F5022817390769F449
S11306C0309729F41092F7021092F60202C01382B6
S11306D01282D093F502C093F402DF91CF91089572
S11306E00F931F93CF93DF93EC018B01009731F4A9
S11306F06115710519F480E090E037C06EE070E098
S113070081E090E036D2FC010097A9F380E883836E
S11307100115110571F01387028781E883838091A5
S1130720F8029091F902892B21F4F093F902E093F5
S1130730F8022097C9F0D187C087838182608383C0
S11307408091FA029091FB02892B71F4F093FB02E1
S1130750E093FA028091FC029091FD02892B21F42E
S1130760F093FD02E093FC02CF01DF91CF911F9142
S11307700F910895CF93DF93CDB7DEB7FE01369680
S113078061917191AF018091FA029091FB0203D0C3
S1130790DF91CF9108952F923F924F925F926F9283
S11307A07F928F929F92AF92BF92CF92DF92EF92FD
S11307B0FF920F931F93CF93DF93CDB7DEB72C97A0
S11307C00FB6F894DEBF0FBECDBF7C016B018A016A
S11307D0FC0117821682838181FFB0C1CE0101968C
S11307E04C01F7019381F60193FD859193FF81916B
S11307F06F01882309F49EC1853239F493FD8591F4
S113080093FF81916F01853221F4B70190E0E8D123
S1130810E8CF512C312C20E02032A0F48B3269F047
S113082030F4803259F0833269F420612CC08D3267
S113083039F0803339F4216026C02260246023C05B
S1130840286021C027FD27C030ED380F3A3078F4F6
S113085026FF06C0FAE05F9E300D1124532E13C00C
S11308608AE0389E300D1124332E20620CC08E3263
S113087021F426FD5FC1206406C08C3611F4206883
S113088002C0883641F4F60193FD859193FF81916E
S11308906F018111C1CF982F9F7D9554933028F417
S11308A00C5F1F4FFFE3F9830DC0833631F08337AC
S11308B071F0833509F057C021C0F8018081898324
S11308C00E5F1F4F44244394512C540114C038012B
S11308D0F2E06F0E711CF801A080B18026FF03C006
S11308E0652D70E002C06FEF7FEFC5012C876DD1DD
S11308F02C0183012C852F77222E16C03801F2E0BB
S11309006F0E711CF801A080B18026FF03C0652D15
S113091070E002C06FEF7FEFC5012C8744D12C013A
S11309202C852068222E830123FC19C0832D90E09E
S113093048165906A0F4B70180E290E051D13A94E8
S1130940F5CFF50127FC859127FE81915F01B70161
S113095090E046D131103A94F1E04F1A5108411415
S1130960510479F7DEC0843611F0893631F5F80187
S113097027FF07C060817181828193810C5F1F4FC3
S113098008C060817181882777FD8095982F0E5F5C
S11309901F4F2F76B22E97FF09C0909580957095C2
S11309A061957F4F8F4F9F4F2068B22E2AE030E031
S11309B0A40148D1A82EA81843C0853729F42F7E56
S11309C0B22E2AE030E025C0F22FF97FBF2E8F36F9
S11309D0C1F018F4883579F0ADC0803719F0883744
S11309E021F0A8C02F2F2061B22EB4FE0DC08B2D94
S11309F08460B82E09C024FF0AC09F2F9660B92EC8
S1130A0006C028E030E005C020E130E002C020E16B
S1130A1032E0F801B7FE07C0608171818281938161
S1130A200C5F1F4F06C06081718180E090E00E5F13
S1130A301F4FA40107D1A82EA818FB2DFF77BF2EA6
S1130A40B6FE0BC02B2D2E7FA51450F4B4FE0AC0A5
S1130A50B2FC08C02B2D2E7E05C07A2C2B2D03C092
S1130A607A2C01C0752C24FF0DC0FE01EA0DF11D86
S1130A708081803311F4297E09C022FF06C073945B
S1130A80739404C0822F867809F0739423FD12C0F6
S1130A9020FF06C05A2C731418F4530C5718732CE7
S1130AA0731460F4B70180E290E02C8799D07394BA
S1130AB02C85F6CF731410F4371801C0312C24FFA1
S1130AC011C0B70180E390E02C878AD02C8522FFE7
S1130AD016C021FF03C088E590E002C088E790E0DB
S1130AE0B7010CC0822F867851F021FD02C080E24C
S1130AF001C08BE227FD8DE2B70190E071D0A5140F
S1130B0030F4B70180E390E06BD05A94F8CFAA9404
S1130B10F401EA0DF11D8081B70190E061D0A110CC
S1130B20F6CF332009F45DCEB70180E290E058D0CF
S1130B303A94F7CFF7018681978102C08FEF9FEF38
S1130B402C960FB6F894DEBF0FBECDBFDF91CF91C8
S1130B501F910F91FF90EF90DF90CF90BF90AF90D7
S1130B609F908F907F906F905F904F903F902F90C9
S1130B7008950F931F93CF93DF93869F8001879FE0
S1130B80100D969F100D1124C80183DCEC01009711
S1130B9021F0A80160E070E011D0CE01DF91CF9187
S1130BA01F910F910895FC01059061507040011050
S1130BB0D8F7809590958E0F9F1F0895DC0101C092
S1130BC06D9341505040E0F70895FC01615070402E
S1130BD001900110D8F7809590958E0F9F1F08956E
S1130BE00F931F93CF93DF93182F092FEB018B8162
S1130BF081FD03C08FEF9FEF20C082FF10C04E81A4
S1130C005F812C813D81421753077CF4E881F9818F
S1130C109F012F5F3F4F39832883108306C0E885E7
S1130C20F985812F1995892B29F72E813F812F5F13
S1130C303F4F3F832E83812F902FDF91CF911F91C0
S1130C400F910895FA01AA27283051F1203181F13A
S1130C50E8946F936E7F6E5F7F4F8F4F9F4FAF4FC0
S1130C60B1E03ED0B4E03CD0670F781F891F9A1FD3
S1130C70A11D680F791F8A1F911DA11D6A0F711D87
S1130C80811D911DA11D20D009F468943F912AE093
S1130C90269F11243019305D3193DEF6CF0108957B
S1130CA0462F4770405D4193B3E00FD0C9F7F6CFAC
S1130CB0462F4F70405D4A3318F0495D31FD405274
S1130CC0419302D0A9F7EACFB4E0A695979587950A
S1130CD077956795BA95C9F70097610571050895E9
S1130CE09B01AC010A2E0694579547953795279595
S1130CF0BA95C9F7620F731F841F951FA01D08952D
S1070D00F894FFCF91
S1130D040000FE02200025642063616E5F636F6E41
S1130D1474726F6C6C6572206973204E4F54206931
S1130D246E20636F6E66696775726174696F6E2095
S1130D346D6F646520616674657220726573657491
S1130D44210A0D006D6F64652076616C75653A2027
S1130D54256400436F756C64206E6F74207365742E
S1130D64206E6F726D616C206D6F64652120492063
S1130D74616D20736F727279210A0D006D6573734E
S1130D8461676520494E54455252555054494F4E5B
S1130D942072656369657665640A0D002564200A1A
S1130DA40D0044415441204F4E205258310A0D0045
S1130DB44E6F206D65737361676520617661696C3C
S1130DC461626C65206F6E207468652043414E2017
S1130DD452455820425546464552730A0D0048650B
S1130DE46C6C6F2066726F6D206E6F6465203221A7
S1070DF40A0D0000E0
S9030000FC
