S01700006279676765726E32345F6E6F6465312E7372656383
S113000007C4000021C40000FCC400001DC400009B
S11300101BC4000019C4000017C4000015C400006C
S113002013C4000011C400000FC400000DC400007C
S11300300BC4000009C4000007C4000005C400008C
S113004003C4000001C40000FFC30000FDC300009E
S1130050FBC30000F9C30000F7C30000F5C30000B0
S1130060F3C30000F1C30000EFC30000EDC30000C0
S113007088D87C3F3F7CD888183C7EFFFF7E3C18A4
S11300801E3F7EFCFC7E3F1EFFCF9BBFBF9BCFFF6E
S1130090FFFBFBDFDFFBFBFF183C3C7EFF3C3C3CF3
S11300A0E0380C3EF233191F1F1933F23E0C38E0CE
S11300B0070E7E9F87869C84849C86879F7E0E077E
S11300C00000C0C0F0F0FCFC0C0C0F0FC3C3FFFF1A
S11300D0FFFFC3C30F0F0C0CFCFCF0F0C0C000000A
S11300E0FCFC0F0F00000F0FFFFF0F0F03030303B0
S11300F0030303030F0FFFFF0F0F00000F0FFCFCA0
S11301003F3FFCFCFCFCFFFF3F3F3C3CF0F0303049
S11301103030F0F03C3C3F3FFFFFFCFCFCFC3F3F39
S1130120000000003F3FC3C3C0C0C0C0C3C3C0C0C1
S1130130C0C0C3C3C0C0C0C0C3C33F3F00000000B1
S1130140F8FCFEFFFFFF3F3F3F3F3F3F3FBFBFBFC6
S1130150BFBFBF3F3F3F3F3F3F3FFFFFFFFEFCF8B6
S1130160FFFFFFFFFFFF00E0FCFEFFFFFFFFFFFFBD
S1130170FFFFFFFFFFFFFEFCE000FFFFFFFFFFFFAD
S1130180FFFFFFFFFFFF00073F7FFFFFFFFFFFFFB2
S1130190FFFFFFFFFFFF7F3F0700FFFFFFFFFFFFA2
S11301A01F3F7FFFFFFFFCFCFCFCFCFCFCFDFDFD96
S11301B0FDFDFDFCFCFCFCFCFCFCFFFFFF7F3F1F86
S11301C000000000005C00000C000C007C287C286F
S11301D058DC68002410480028542840000C000013
S11301E0007884008478000054385400107C100097
S11301F080400000101010000040000060100C004F
S113020038543800487C40004864580044542C005A
S11302101C107C005C5424003854240064140C002A
S113022068542C00485438000048000080480000FE
S113023010284400282828004428100004540800EA
S113024038445C00781478007C5428003844280032
S11302507C4438007C5444007C140400384474000A
S11302607C107C00447C440020403C007C106C00EA
S11302707C4040007C187C0078103C0038443800F6
S11302807C1408003844B8007C14680048542400E6
S1130290047C04007C407C003C603C007C307C009E
S11302A06C106C000C700C0064544C00007C440016
S11302B00C106000447C000008040800808080006A
S11302C000040800304878007C483000304848007A
S11302D030487C00306850001078140090A87800F2
S11302E07C08700050744000808074007C106800AA
S11302F0447C400078107800780870003048300062
S1130300F82810003048F8007810080050582800E9
S1130310083C48003840780038403800782078009D
S11303204830480098A07800486858001078840045
S1130330007C000084781000080408040000000019
S11303400000005F00000007000700147F147F1402
S1130350242A7F2A12231308646236495522500046
S113036005030000001C2241000041221C00082A51
S11303701C2A0808083E0808005030000008080835
S11303800808006060000020100804023E5149453E
S11303903E00427F400042615149462141454B3174
S11303A01814127F1027454545393C4A4949300104
S11303B0710905033649494936064949291E00365B
S11303C036000000563600000008142241141414AC
S11303D014144122140800020151090632497941DA
S11303E03E7E1111117E7F494949363E41414122E9
S11303F07F4141221C7F494949417F090901013E4E
S1130400414151327F0808087F00417F410020406C
S1130410413F017F081422417F404040407F020455
S1130420027F7F0408107F3E4141413E7F09090954
S1130430063E4151215E7F09192946464949493101
S113044001017F01013F4040403F1F2040201F7FAA
S11304502018207F63140814630304780403615193
S113046049454300007F4141020408102041417F77
S11304700000040201020440404040400001020424
S11304800020545454787F48444438384444442029
S1130490384444487F3854545418087E09010208EB
S11304A01454543C7F0804047800447D40002040E8
S11304B0443D00007F10284400417F40007C041824
S11304C004787C0804047838444444387C141414B4
S11304D008081414187C7C08040408485454542054
S11304E0043F4440203C4040207C1C2040201C3CD5
S11304F04030403C44281028440C5050503C446444
S1130500544C44000836410000007F00000041368E
S113051008000201030201000000000000000000C6
S1130520065F5F06000000000707000707000014CD
S11305307F7F147F7F1400242E6B6B3A12000046D9
S11305406630180C666200307A4F5D377A480004D2
S113055007030000000000001C3E6341000000008F
S113056041633E1C000000082A3E1C1C3E2A080869
S1130570083E3E0808000000A0E0600000000008FB
S1130580080808080800000000606000000000601F
S113059030180C060301003E7F594D7F3E00004297
S11305A0427F7F40400000627359496F6600002219
S11305B06349497F360000181C16137F7F100027FB
S11305C06745457D3900003C7E4B49793000000386
S11305D06371190F070000367F49497F3600000612
S11305E04F49693F1E000000006C6C0000000000D1
S11305F0A0EC6C00000000081C36634100000014ED
S113060014141414140000004163361C0800000282
S11306100351590F0600003E7F415D5D1F1E007CA3
S11306207E13137E7C0000417F7F49497F36001C86
S11306303E634141632200417F7F41637F1C00414F
S11306407F7F495D416300417F7F491D0103001C99
S11306503E6341517372007F7F08087F7F00000072
S1130660417F7F41000000307040417F3F010041E5
S11306707F7F081C776300417F7F41406070007F6B
S11306807F060C067F7F007F7F060C187F7F001C8F
S11306903E6341633E1C00417F7F49090F06001EF3
S11306A03F21717F5E0000417F7F19396F4600262C
S11306B0674D597B32000003417F7F410300007F77
S11306C07F40407F7F00001F3F60603F1F00007F2E
S11306D07F3018307F7F0063771C081C7763000726
S11306E04F78784F0700006773594D4763710000D6
S11306F07F7F41410000000103060C1830600000B8
S113070041417F7F000000080C0603060C080080AE
S11307108080808080808000000307040000002027
S11307207454543C784000413F7F44447C38003842
S11307307C44446C280000307848493F7F400038AE
S11307407C54545C180000487E7F490302000098E2
S1130750BCA4A4F87C0400417F7F08047C780000DA
S1130760447D7D4000000040C484FD7D00000041C4
S11307707F7F10386C440000417F7F400000007C84
S11307807C0C180C7C78007C7C04047C7800003899
S11307907C44447C38000084FCF8A4243C180018F1
S11307A03C24A4F8FC8400447C78441C18000048D1
S11307B05C54547424000000043E7F442400003C34
S11307C07C40403C7C40001C3C60603C1C00003C85
S11307D07C6030607C3C00446C3810386C44009C75
S11307E0BCA0A0FC7C00004C64745C4C6400000859
S11307F0083E774141000000000077770000004187
S113080041773E08080000020301030203010000CF
S113081011241FBECFEFD4E0DEBFCDBF12E0A0E0B5
S1130820B1E0E6EDFFE102C005900D92A030B10702
S1130830D9F722E0A0E0B2E001C01D92AE30B207C9
S1130840E1F7BED40C94E90FDBCB8D5F80930014E9
S113085082E48A95F1F700C080910014992787FDFE
S113086090950895C49880ECC4D5C49A8FEF9FE204
S11308700197F1F700C000000895CF93C82FC498E2
S113088083E0B7D58C2FB5D5B6D5C49ACF9108954A
S1130890C49881E8AED588B38F6E88BB08951F9342
S11308A0CF93DF93182FD62FC42FC49885E0A1D5FA
S11308B0812F9FD58D2F9DD58C2F9BD5C49ADF91E9
S11308C0CF911F910895482F60EE8FE0E8DF8EE00E
S11308D0D4DF807E0895CF93DF93D82FC62FC4989A
S11308E082E087D58D2F85D58C2F83D5C49ADF914F
S11308F0CF910895B7DF8EE0C0DF982F907E9038B7
S113090071F01F928F9386E091E09F938F930E94E2
S1130910170D0F900F900F900F9081E0089543E012
S11309206FEF8BE2BCDF44E664E680E6B8DF40E6C6
S113093060E680E7B4DF60E082E3CDDF80E0089525
S113094080E0C1DF882341F083E591E09F938F939A
S11309500E94170D0F900F90F89485B7886085BF9B
S113096085B78B7F85BF60E08CE2B5DF60E08DE208
S1130970B2DF8BB780688BBF789408950F931F9371
S1130980CF93DF93EC01688181E3A5DF0981602FB8
S113099085E3A1DF2296002341F00A5C16E3699106
S11309A0812F99DF1F5F1013FACF72DF80E090EF81
S11309B00197F1F7DF91CF911F910F9108950F9354
S11309C01F93CF93DF93EB01182F1295107F81E6CD
S11309D0810F53DF85E6810F50DF982F9F70998335
S11309E0882351F01A592296082F010F812F45DFD1
S11309F089931F5F1013FACFDF91CF911F910F914D
S1130A0008951F920F920FB60F921124FF920F9325
S1130A101F932F933F934F935F936F937F938F9382
S1130A209F93AF93BF93CF93DF93EF93FF93F89488
S1130A308AE090E08BD6EC018CE21FDF80FF23C0BC
S1130A40BE0180E0BCDF8CE791E09F938F93EFD7EA
S1130A500F900F908981882309F443C0F12C0BE88F
S1130A6011E0FE01EF0DF11D82811F928F931F9300
S1130A700F93DDD7F3940F900F900F900F9089810F
S1130A80F81678F32EC081FF22C0BE0181E097DF03
S1130A9081E991E09F938F93CAD70F900F9089813A
S1130AA08823F9F0F12C0BE811E0FE01EF0DF11DA4
S1130AB082811F928F931F930F93B9D7F3940F9052
S1130AC00F900F900F908981F81678F30AC060E0B8
S1130AD08CE201DFCE01D2D660E08CE2FCDE7894B9
S1130AE009C060E08CE2F7DECE01C8D660E08CE29B
S1130AF0F2DE7894FF91EF91DF91CF91BF91AF91A6
S1130B009F918F917F916F915F914F913F912F9121
S1130B101F910F91FF900F900FBE0F901F9018958B
S1130B20CF92DF92EF92FF920F931F93CF93DF93B5
S1130B30CDB7DEB72A970FB6F894DEBF0FBECDBF90
S1130B404FD2C62ED82E0FD3E82E21D3F82EB8D2EA
S1130B50082F2ED3182F30D391E09983CB82DC82D7
S1130B60ED82FE820F831887898787E08A83CE010E
S1130B70019604DF2A960FB6F894DEBF0FBECDBFF0
S1130B80DF91CF911F910F91FF90EF90DF90CF9065
S1130B900895CF92DF92EF92FF920F931F93CF931A
S1130BA0DF93CDB7DEB72A970FB6F894DEBF0FBE3A
S1130BB0CDBF16D2C62ED82ED6D2E82EE8D2F82E25
S1130BC07FD2082FF5D2182FF7D291E09983CB82E8
S1130BD0DC82ED82FE820F831887898787E08A830F
S1130BE0CE010196CBDE2A960FB6F894DEBF0FBE77
S1130BF0CDBFDF91CF911F910F91FF90EF90DF90C8
S1130C00CF900895EF92FF920F931F93CF93DF93AA
S1130C10EC018B017A014CD3888199818330910551
S1130C2009F43AC034F48130910559F0029791F1F6
S1130C3061C08430910509F44CC0059709F452C091
S1130C4059C064E6F701808140D385E090E0B1D3D8
S1130C5060E080E03AD363E070E08A819B8182D3D4
S1130C6060E082E032D3EE81FF8162E070E0828155
S1130C70938178D360E083E028D3E885F98562E046
S1130C8070E0828193816ED383E090E0F8019183D8
S1130C90808330C045DF2EC060E080E016D363E07F
S1130CA070E08A819B815ED360E082E00ED3EE81A6
S1130CB0FF8162E070E08281938154D360E083E03D
S1130CC004D3E885F98562E070E0828193814AD398
S1130CD011C060E080E0F9D263E070E08A819B811A
S1130CE041D308C060E080E0F0D263E070E08A8124
S1130CF09B8138D3CE01DF91CF911F910F91FF904B
S1130D00EF9008958F929F92AF92BF92CF92DF920D
S1130D10EF92FF920F931F93CF93DF936B015A01CE
S1130D2080E190E013D5EC0180E190E00FD54C0117
S1130D3080E190E00BD58C0180E190E007D57C0147
S1130D4080E190E003D5FC018FE991E09B838A83E5
S1130D5081E090E099838883DD83CC839F828E82B7
S1130D601987088784EA91E0D40113969C938E93A3
S1130D70129782E090E011969C938E931596DC93E3
S1130D80CE9314978FEA91E0D80113969C938E9397
S1130D90129783E090E011969C938E931596DC93C2
S1130DA0CE9314971796FC92EE9216971996FC938D
S1130DB0EE93189784EC91E0D70113969C938E934D
S1130DC0129784E090E011969C938E9315961C9351
S1130DD00E9314971796DC93CE9316978BEC91E0B1
S1130DE09383828385E090E09183808315830483D9
S1130DF0D783C683A501B601CE0104DFDF91CF916D
S1130E001F910F91FF90EF90DF90CF90BF90AF9024
S1130E109F908F900895EF92FF920F931F93CF931B
S1130E20DF938A01E90199278230910509F11CF4C5
S1130E30019741F074C083309105B9F1049709F426
S1130E404FC06DC0FB01E480F580A901B801C70162
S1130E50D9DEF70183818F9382818F9384ED91E0B2
S1130E609F938F93E4D50F900F900F900F9057C0DE
S1130E70888199810196880F991FFB01E80FF91F5A
S1130E80E080F180A901B801C701BCDEF7018381CC
S1130E908F9382818F9384ED91E09F938F93C7D535
S1130EA00F900F900F900F903AC064E688810DD296
S1130EB063E070E089ED91E055D2888199810197D2
S1130EC099838883019729F4F8018081918199831A
S1130ED0888364E68881F9D185E090E06AD21FC0F6
S1130EE064E68881F2D163E070E089ED91E03AD262
S1130EF088819981019699838883F80120813181C1
S1130F002F5F3F4F8217930721F482E090E099838B
S1130F10888364E68881D9D185E090E04AD2DF9164
S1130F20CF911F910F91FF90EF900895CF92DF9290
S1130F30EF92FF920F931F93CF93DF93EC017B010A
S1130F406A01E881F981E330F105D9F034F4E13044
S1130F50F10549F0329779F02BC0E430F105C9F07E
S1130F603597F9F025C0ACD0012B11F59601A701F6
S1130F70BE0151DF1DC00DDE80E090EF0197F1F757
S1130F8017C09ED0012BA1F49601A701BE0143DF37
S1130F900FC096D0012B61F49601A701BE013BDF7F
S1130FA007C08ED0012B21F49601A701BE0133DFC7
S1130FB0DF91CF911F910F91FF90EF90DF90CF9031
S1130FC0089582E090E041DC909303028093020252
S1130FD081E090E03ADC909301028093000208954E
S1130FE08F929F92AF92BF92CF92DF92EF92FF9235
S1130FF0CF93DF936091020270910302882777FDFB
S11310008095982F17D39B01AC0160E070E08FE7C7
S113101093E410D220E030E048EC52E470D24B016B
S11310205C016091000270910102882777FD809530
S1131030982F00D39B01AC0160E070E08FE793E44C
S1131040F9D120E030E048EC52E459D26B017C0144
S113105082E090E0FADBEC0181E090E0F6DB2091A5
S1131060000230910102821B930BBC01882777FD9B
S11310708095982FDFD2A701960141D2A8D26B01A7
S11310807C018091020290910302BE01681B790BDE
S1131090882777FD8095982FCDD2A50194012FD272
S11310A096D24B015C01B401C601DF91CF91FF9050
S11310B0EF90DF90CF90BF90AF909F908F90089566
S11310C08FDF9B01AC01FB013A96759720F4FC017C
S11310D03A967597C8F1263FEFEF3E078CF4DB0193
S11310E0332324F4AA27BB27A61BB70BFC015523E3
S11310F024F4EE27FF27E81BF90BAE17BF073CF5D6
S11311002B30310554F0FC01552324F4EE27FF273E
S1131110E81BF90B2E173F07ECF4463F5F4FECF446
S1131120AC01992324F444275527481B590B9B01F0
S1131130772324F422273327261B370B241735075C
S11311407CF083E090E0089580E090E0089581E0F1
S113115090E0089582E090E0089583E090E008959F
S113116084E090E0089583E090E06FDB6FEF70E03F
S1131170681B790B882777FD8095982F5BD223E332
S113118033E343E250E4BBD122D2CB01089584E09F
S113119090E05BDBBC01882777FD8095982F4AD2CD
S11311A023E333E343E250E4AAD111D2CB010895FF
S11311B086B3817090E0089586B3827090E00895BC
S11311C0CF93DF93CDB7DEB766970FB6F894DEBF43
S11311D00FBECDBF8FE190E021D111D1F2DE2BD033
S11311E006D188DBADDB8BED91E09F938F931FD409
S11311F082E090E09A8389839C838B83AE014F5F66
S11312005F4FBE016D5F7F4FCE0105967BDD1D8A6A
S11312101E8A0F900F908E010B5E1F4F9E012A5E57
S11312203F4FAE014D5F5F4FBE016F5F7F4FCE01F9
S113123005967CDEF0CFE0E0F0E18EEA808381EA7F
S113124080838AED808382E1808388EC808388EACE
S113125080838FE3808385ED808380E8808381E8C9
S1131260808380E5808389ED808381E2808380E2CE
S1131270808310828BED808380E380838DEA80837A
S1131280108284EA808386EA80838FEA80830895CB
S1131290E0E0F0E192E29083808387E08083089528
S11312A0E0E0F0E191E2908380838FE7808308950A
S11312B080E0EEDF80E0F4DF80E094E0E0E0F2E163
S11312C0108201970097E1F70895CF93C62FE0DFCE
S11312D08C2FE6DFCF910895E82FFF27E7FDF095E7
S11312E0B09763307105A1F4EE0FFF1FEE0FFF1FDF
S11312F0EE0FFF1FE95EFA4F80E090E0A0E0B2E15C
S113130024912C930196319688309105C9F708955C
S113131062307105A9F4CF01880F991F880F991FB6
S1131320E80FF91FE45CFC4F80E090E0A0E0B2E13C
S113133024912C930196319685309105C9F708952F
S1131340EE0FFF1FEE0FFF1FE054FE4F80E090E012
S1131350A0E0B2E124912C9301963196843091055A
S1131360C9F70895CF92DF92EF92FF920F931F93E4
S1131370CF93DF938C016B017C01C0E0D0E006C009
S1131380B601F70181917F01A7DF2196F801019051
S11313900020E9F73197E01BF10BCE17DF0780F34C
S11313A0DF91CF911F910F91FF90EF90DF90CF903D
S11313B00895880F991F880F991F880F991FFC01A2
S11313C0E059FF4F88589F4FA0E0B2E124912C933D
S11313D03196E817F907D1F7089580EB87BBBE98DB
S11313E081E58DB908958FB9779BFECF0895F5CF28
S11313F00895F9CF089580E0F6DF8FB1089585B799
S1131400806885BF80B7806280BF08955D9BFECFF2
S11314108CB908955F9BFECF8CB1089590BD89B9B6
S113142088E18AB98EE880BD6AE07AE086E09AE0D5
S1131430B4C208955058BB27AA270ED04DC13ED13F
S113144030F043D120F031F49F3F11F41EF433C146
S11314500EF4E095E7FB29C1E92F4FD180F3BA17C9
S1131460620773078407950718F071F49EF567C146
S11314700EF4E0950B2EBA2FA02D0B01B9019001AB
S11314800C01CA01A0011124FF27591B99F0593FEF
S113149050F4503E68F11A16F040A22F232F342F37
S11314A04427585FF3CF469537952795A795F04085
S11314B05395C9F77EF41F16BA0B620B730B840B9A
S11314C0BAF09150A1F0FF0FBB1F661F771F881F52
S11314D0C2F70EC0BA0F621F731F841F48F48795AA
S11314E077956795B795F7959E3F08F0B3CF939599
S11314F0880F08F09927EE0F9795879508950CD0DB
S1131500EBC0E3D040F0DAD030F021F45F3F19F0C3
S1131510CCC0511115C1CFC0F0D098F39923C9F3B1
S11315205523B1F3951B550BBB27AA2762177307E5
S1131530840738F09F5F5F4F220F331F441FAA1F99
S1131540A9F333D00E2E3AF0E0E830D09150504059
S1131550E695001CCAF729D0FE2F27D0660F771F07
S1131560881FBB1F261737074807AB07B0E809F0E9
S1131570BB0B802DBF01FF2793585F4F2AF09E3F7E
S1131580510568F092C0DCC05F3FECF3983EDCF399
S1131590869577956795B795F7959F5FC9F7880FF7
S11315A0911D9695879597F90895E1E0660F771F49
S11315B0881FBB1F621773078407BA0720F0621BDA
S11315C0730B840BBA0BEE1F88F7E095089504D0D3
S11315D06894B111B5C0089598D088F09F5790F0E1
S11315E0B92F9927B751A0F0D1F0660F771F881F44
S11315F0991F1AF0BA95C9F712C0B13081F09FD083
S1131600B1E008959CC0672F782F8827B85F39F020
S1131610B93FCCF3869577956795B395D9F73EF4A2
S113162090958095709561957F4F8F4F9F4F08954A
S1131630E89409C097FB3EF4909580957095619568
S11316407F4F8F4F9F4F9923A9F0F92F96E9BB271E
S11316509395F695879577956795B795F111F8CF9A
S1131660FAF4BB0F11F460FF1BC06F5F7F4F8F4F05
S11316709F4F16C0882311F096E911C0772321F0FB
S11316809EE8872F762F05C0662371F096E8862F93
S113169070E060E02AF09A95660F771F881FDAF7EA
S11316A0880F9695879597F9089597F99F6780E82D
S11316B070E060E008959FEF80EC089500240A94A0
S11316C01616170618060906089500240A94121619
S11316D01306140605060895092E0394000C11F44C
S11316E0882352F0BB0F40F4BF2B11F460FF04C0F9
S11316F06F5F7F4F8F4F9F4F089557FD9058440F52
S1131700551F59F05F3F71F04795880F97FB991F5C
S113171061F09F3F79F08795089512161306140619
S1131720551FF2CF4695F1DF08C0161617061806A6
S1131730991FF1CF86957105610508940895E89481
S1131740BB2766277727CB0197F90895CF93DF93BB
S11317508230910510F482E090E0E0910602F0916D
S1131760070220E030E0A0E0B0E0309739F140819A
S1131770518148175907B8F04817590771F4828105
S11317809381109729F013969C938E9312972CC0F3
S1131790909307028093060227C02115310531F08A
S11317A04217530718F0A901DB0101C0EF019A01A8
S11317B0BD01DF010280F381E02DD7CF2115310572
S11317C0F9F0281B390B2430310580F48A819B8180
S11317D06115710521F0FB019383828304C090930A
S11317E0070280930602FE01329644C0FE01E20F16
S11317F0F31F8193919322503109398328833AC08E
S11318002091040230910502232B41F4209102011E
S113181030910301309305022093040220910001CA
S1131820309101012115310541F42DB73EB74091A6
S1131830040150910501241B350BE0910402F09141
S11318400502E217F307A0F42E1B3F0B28173907F4
S113185078F0AC014E5F5F4F2417350748F04E0F08
S11318605F1F50930502409304028193919302C039
S1131870E0E0F0E0CF01DF91CF910895CF93DF93C3
S1131880009709F487C0FC01329713821282C09139
S11318900602D0910702209781F420813181280F1C
S11318A0391F80910402909105028217930779F5FC
S11318B0F0930502E09304026DC0DE0120E030E005
S11318C0AE17BF0750F412964D915C9113979D018A
S11318D04115510509F1DA01F3CFB383A2834081A5
S11318E05181840F951F8A179B0771F48D919C91E8
S11318F01197840F951F02969183808312968D9180
S11319009C911397938382832115310529F4F093D5
S11319100702E09306023EC0D9011396FC93EE93AE
S113192012974D915D91A40FB51FEA17FB0779F447
S113193080819181840F951F0296D90111969C9301
S11319408E938281938113969C938E931297E0E0F9
S1131950F0E08A819B81009719F0FE01EC01F9CF38
S1131960CE01029628813981820F931F20910402AF
S1131970309105022817390769F4309729F4109239
S113198007021092060202C013821282D09305024B
S1131990C0930402DF91CF9108950F931F93CF93C7
S11319A0DF93EC018B01009731F46115710519F493
S11319B080E090E037C06EE070E081E090E00BD210
S11319C0FC010097A9F380E883830115110571F0E8
S11319D01387028781E8838380910802909109022A
S11319E0892B21F4F0930902E09308022097C9F0AF
S11319F0D187C08783818260838380910A0290911A
S1131A000B02892B71F4F0930B02E0930A0280918C
S1131A100C0290910D02892B21F4F0930D02E093B6
S1131A200C02CF01DF91CF911F910F910895A0E097
S1131A30B0E0ECE1FDE0A6C2FE0135966191719142
S1131A40AF0180910A0290910B0202D0E2E0B6C28B
S1131A50ACE0B0E0EDE2FDE085C27C016B018A01FF
S1131A60FC0117821682838181FFB0C1CE010196E9
S1131A704C01F7019381F60193FD859193FF8191C8
S1131A806F01882309F49EC1853239F493FD859151
S1131A9093FF81916F01853221F4B70190E0D2D197
S1131AA0E8CF512C312C20E02032A0F48B3269F0A5
S1131AB030F4803259F0833269F420612CC08D32C5
S1131AC039F0803339F4216026C02260246023C0B9
S1131AD0286021C027FD27C030ED380F3A3078F454
S1131AE026FF06C0FAE05F9E300D1124532E13C06A
S1131AF08AE0389E300D1124332E20620CC08E32C1
S1131B0021F426FD5FC1206406C08C3611F42068E0
S1131B1002C0883641F4F60193FD859193FF8191CB
S1131B206F018111C1CF982F9F7D9554933028F474
S1131B300C5F1F4FFFE3F9830DC0833631F0833709
S1131B4071F0833509F057C021C0F8018081898381
S1131B500E5F1F4F44244394512C540114C0380188
S1131B60F2E06F0E711CF801A080B18026FF03C063
S1131B70652D70E002C06FEF7FEFC5012C8757D150
S1131B802C0183012C852F77222E16C03801F2E018
S1131B906F0E711CF801A080B18026FF03C0652D73
S1131BA070E002C06FEF7FEFC5012C872ED12C01AE
S1131BB02C852068222E830123FC19C0832D90E0FC
S1131BC048165906A0F4B70180E290E03BD13A945C
S1131BD0F5CFF50127FC859127FE81915F01B701BF
S1131BE090E030D131103A94F1E04F1A5108411489
S1131BF0510479F7DEC0843611F0893631F5F801E5
S1131C0027FF07C060817181828193810C5F1F4F20
S1131C1008C060817181882777FD8095982F0E5FB9
S1131C201F4F2F76B22E97FF09C09095809570951F
S1131C3061957F4F8F4F9F4F2068B22E2AE030E08E
S1131C40A40132D1A82EA81843C0853729F42F7EC9
S1131C50B22E2AE030E025C0F22FF97FBF2E8F3656
S1131C60C1F018F4883579F0ADC0803719F08837A1
S1131C7021F0A8C02F2F2061B22EB4FE0DC08B2DF1
S1131C808460B82E09C024FF0AC09F2F9660B92E25
S1131C9006C028E030E005C020E130E002C020E1C9
S1131CA032E0F801B7FE07C06081718182819381BF
S1131CB00C5F1F4F06C06081718180E090E00E5F71
S1131CC01F4FA401F1D0A82EA818FB2DFF77BF2E1B
S1131CD0B6FE0BC02B2D2E7FA51450F4B4FE0AC003
S1131CE0B2FC08C02B2D2E7E05C07A2C2B2D03C0F0
S1131CF07A2C01C0752C24FF0DC0FE01EA0DF11DE4
S1131D008081803311F4297E09C022FF06C07394B8
S1131D10739404C0822F867809F0739423FD12C053
S1131D2020FF06C05A2C731418F4530C5718732C44
S1131D30731460F4B70180E290E02C8783D073942D
S1131D402C85F6CF731410F4371801C0312C24FFFE
S1131D5011C0B70180E390E02C8774D02C8522FF5A
S1131D6016C021FF03C088E590E002C088E790E038
S1131D70B7010CC0822F867851F021FD02C080E2A9
S1131D8001C08BE227FD8DE2B70190E05BD0A51482
S1131D9030F4B70180E390E055D05A94F8CFAA9478
S1131DA0F401EA0DF11D8081B70190E04BD0A11040
S1131DB0F6CF332009F45DCEB70180E290E042D043
S1131DC03A94F7CFF7018681978102C08FEF9FEF96
S1131DD02C96E2E1E3C00F931F93CF93DF93869F8A
S1131DE08001879F100D969F100D1124C801AEDC51
S1131DF0EC01009721F0A80160E070E011D0CE0161
S1131E00DF91CF911F910F910895FC0105906150CE
S1131E1070400110D8F7809590958E0F9F1F0895FC
S1131E20DC0101C06D9341505040E0F70895FC017E
S1131E306150704001900110D8F7809590958E0FF5
S1131E409F1F08950F931F93CF93DF93182F092F8C
S1131E50EB018B8181FD03C08FEF9FEF20C082FFD8
S1131E6010C04E815F812C813D81421753077CF461
S1131E70E881F9819F012F5F3F4F398328831083C5
S1131E8006C0E885F985812F0995892B29F72E81CC
S1131E903F812F5F3F4F3F832E83812F902FDF9110
S1131EA0CF911F910F910895FA01AA27283051F17B
S1131EB0203181F1E8946F936E7F6E5F7F4F8F4F77
S1131EC09F4FAF4FB1E03ED0B4E03CD0670F781FD6
S1131ED0891F9A1FA11D680F791F8A1F911DA11DBB
S1131EE06A0F711D811D911DA11D20D009F46894F4
S1131EF03F912AE0269F11243019305D3193DEF69C
S1131F00CF010895462F4770405D4193B3E00FD051
S1131F10C9F7F6CF462F4F70405D4A3318F0495D3C
S1131F2031FD4052419302D0A9F7EACFB4E0A6951F
S1131F309795879577956795BA95C9F70097610541
S1131F40710508959B01AC010A2E06945795479597
S1131F5037952795BA95C9F7620F731F841F951F8C
S1131F60A01D08952F923F924F925F926F927F929D
S1131F708F929F92AF92BF92CF92DF92EF92FF9295
S1131F800F931F93CF93DF93CDB7DEB7CA1BDB0B41
S1131F900FB6F894DEBF0FBECDBF09942A883988E6
S1131FA048885F846E847D848C849B84AA84B984ED
S1131FB0C884DF80EE80FD800C811B81AA81B981F9
S1131FC0CE0FD11D0FB6F894DEBF0FBECDBFED010D
S1091FD00895F894FFCF10
S1131FD600000E02200025642063616E5F636F6E4D
S1131FE674726F6C6C6572206973204E4F5420694D
S1131FF66E20636F6E66696775726174696F6E20B1
S11320066D6F6465206166746572207265736574AC
S1132016210A0D006D6F64652076616C75653A2042
S1132026256400436F756C64206E6F742073657449
S1132036206E6F726D616C206D6F6465212049207E
S1132046616D20736F727279210A0D004441544107
S1132056204F4E205258303A0A0D002564200A0DAE
S11320660044415441204F4E205258310A0D004D30
S1132076656E750053746172742047616D65005313
S11320866574204D6F746F7220436F6E74726F6C3B
S11320966C657200536C69646572004A6F79737477
S11320A669636B0025730A0D002000535441525492
S11320B6203D3D3D3D3D3D3D3D3D3D3D3D3D3D3D63
S11320C63D3D3D3D3D3D3D3D3D3D3D3D3D0A0D00D6
S9030000FC
