S01700006279676765726E32345F6E6F6465322E7372656382
S1130000C2C00000E0C00000DEC00000DCC0000090
S1130010DAC00000A8C10000D6C00000D4C00000AF
S1130020D2C00000D0C00000CEC00000CCC0000090
S1130030CAC00000C8C00000C6C00000C4C00000A0
S1130040C2C00000C0C00000BEC00000BCC00000B0
S1130050BAC00000B8C00000B6C00000B4C00000C0
S1130060B2C00000B0C00000AEC00000ACC00000D0
S1130070AAC00000A8C00000A6C00000A4C00000E0
S1130080A2C00000A0C000009EC000009CC00000F0
S11300909AC0000098C0000096C000001AC5000075
S11300A092C0000090C00000B2C300008CC00000E9
S11300B08AC0000088C0000086C0000084C0000020
S11300C082C0000080C000007EC000007CC0000030
S11300D07AC0000078C0000076C0000074C0000040
S11300E072C000008405D605D605D605D605D6050A
S11300F0D605D6058405D605D605D605D605D60576
S1130100D605D6058605D605D605D605D605D60563
S1130110D605D605D605D605D605D605D605D60503
S1130120D605D6058605D605D605D605D605D60543
S1130130D605D605D605D605D605D605D605D605E3
S1130140D605D605D205D605D605D605D605D605D7
S1130150D605D605AF05D605D605D605D605D605EA
S1130160D605D605D605D605D605D605D605D605B3
S1130170D605D605A305D605D605D605D605D605D6
S1130180D605D605C10511241FBECFEFD1E2DEBFCF
S1130190CDBF00E00CBF12E0A0E0B2E0E0EDF8E17A
S11301A000E00BBF02C007900D92AC3AB107D9F73B
S11301B022E0ACEAB2E001C01D92A13EB207E1F731
S11301C080D10C94660C1CCFECE7F0E08081806455
S11301D0808380818F77808380818F7D8083EAE72D
S11301E0F0E08081876880830895ECE7F0E09081F7
S11301F08770987F982B9083EAE7F0E08081806491
S11302008083808186FDFDCF809178009091790074
S113021008952F9880ECE7D32F9A8FE39CE90197F8
S1130220F1F700C000000895CF93C82F2F9883E002
S1130230DAD38C2FD8D3D9D32F9ACF9108951F9383
S1130240CF93DF93182FD62FC42F2F9885E0CBD3CD
S1130250812FC9D38D2FC7D38C2FC5D32F9ADF916C
S1130260CF911F910895482F60EE8FE0E8DF8EE074
S1130270DBDF807E0895CF93DF93D82FC62F2F988E
S113028082E0B1D38D2FAFD38C2FADD32F9ADF91D2
S1130290CF910895BEDF8EE0C7DF982F907E90380F
S11302A071F01F928F9387E092E09F938F930E9447
S11302B0A0090F900F900F900F9081E0089541E0F6
S11302C06FEF8BE2BCDF44E664E680E6B8DF40E62D
S11302D060E680E7B4DF60E082E3CDDF80E008958C
S11302E080E0C1DF882341F084E592E09F938F93FF
S11302F00E94A0090F900F90EAE0F1E080818160F4
S11303008083EAE6F0E080818E7F80838081826052
S11303108083EC9A60E08CE2AEDF60E08DE2ABCFEC
S113032008950F931F93CF93DF93EB01182F12952A
S1130330107F81E6810F78DF85E6810F75DF982FC6
S11303409F709983882351F01A592296082F010F20
S1130350812F6ADF89931F5F1013FACFDF91CF914A
S11303601F910F9108951F920F920FB60F921124AF
S11303700BB60F922F933F934F935F936F937F939B
S11303808F939F93AF93BF93CF93DF93EF93FF9399
S1130390F8948AE090E063D6EC018CE245DF80FFBC
S11303A018C0BE0180E0BDDF8D8190E04ED38F8107
S11303B0FED267D0019721F48C8190E023D204C04F
S11303C08E816A8190E0B2D28885823061F447D010
S11303D00AC060E08CE24FDFCE01D9D660E08CE247
S11303E04ADF789409C060E08CE245DFCE01CFD6C5
S11303F060E08CE240DF7894FF91EF91DF91CF9140
S1130400BF91AF919F918F917F916F915F914F9128
S11304103F912F910F900BBE0F900FBE0F901F9026
S113042018952BD3509A519A0895CF93DF9300D007
S1130430CDB7DEB790E599831A828B8363E0CE0152
S1130440019625D30F900F900F90DF91CF910895CF
S113045081E090E09093B4028093B3020895809178
S1130460B3029091B402019729F41092B40210924D
S1130470B302089581E090E09093B4028093B302B4
S113048008958091B3029091B4020895CF93DF93BD
S1130490EC0180E0AADE8C32914078F421968FEF53
S11304A093ED20E3815090402040E1F700C000002C
S11304B080E09BDE8D329140D8F3CE01DF91CF9165
S11304C00895F89487E690E097D38BD292D27CDE9D
S11304D0A8DFD5D1BDDF51D0DDDE02DF789486E917
S11304E092E09F938F932CD70F900F9080E090E031
S11304F0CDDF2FEF39E648E1215030404040E1F7AD
S113050000C00000F5CF68EC82E090E039D22FEF14
S113051083ED90E3215080409040E1F700C000005B
S11305209FD168EC81E090E02BD22FEF83ED90E334
S1130530215080409040E1F700C00000D2D18C529D
S113054091409093C6028093C50268EC82E090E0EB
S113055017D22FEF83ED90E3215080409040E1F7D4
S113056000C0000060E082E090E00AD284EF91E0F5
S11305709093BA028093B902089580E090E0A0E8D5
S1130580BFE38093D3029093D402A093D502B09397
S1130590D60280E090E0A8E4B1E48093BD02909399
S11305A0BE02A093BF02B093C0028DEC9CECACECF5
S11305B0BDE38093B5029093B602A093B702B093C3
S11305C0B8021092CF021092D0021092D10210926F
S11305D0D2021092C1021092C2021092C30210926F
S11305E0C4021092CB021092CC021092CD0210924F
S11305F0CE021092BC021092BB028DEC9CECACE4D7
S1130600BDE38093C7029093C802A093C902B0933C
S1130610CA0279DFE0EAF0E080818083E1EAF0E079
S113062080818B6080831092A5001092A40083EDDA
S113063090E39093A9008093A800E2E7F0E0808122
S11306408260808308958F929F92AF92BF92CF92DF
S1130650DF92EF92FF92CF93DF9313DF019709F0BC
S1130660C6C03FD1A090B902B090BA028A199B09C2
S1130670BC01882777FD8095982FD2D320E030E005
S113068048EC52E47DD46B017C016091C502709109
S1130690C6026A197B09882777FD8095982FC0D3F5
S11306A09B01AC01C701B60120D387D3A090BB0244
S11306B0B090BC02A61AB70AB501882777FD8095C9
S11306C0982FAED36B017C016093C1027093C20278
S11306D08093C3029093C40220E030E0A90101D3C7
S11306E0C82FCC1FCC27CC1FCF5F2091C7023091DD
S11306F0C8024091C9025091CA02C701B60140D450
S11307009B01AC016091CF027091D0028091D10223
S11307109091D20282D26093CF027093D0028093E0
S1130720D1029093D20285E0A80EB11C8BE0A816EA
S1130730B10480F41092C1021092C2021092C3025A
S11307401092C4021092CF021092D0021092D102E1
S11307501092D202C090C102D090C202E090C302B3
S1130760F090C4022091D3023091D4024091D5027A
S11307705091D602C701B60103D44B015C0120910C
S1130780CF023091D0024091D1025091D2026091B7
S1130790BD027091BE028091BF029091C002F0D35D
S11307A09B01AC01C501B40138D207D39B01772367
S11307B024F422273327261B370BD22F273940F462
S11307C0273348F4C701B60144D406971CF403C088
S11307D0D6E901C0D7E3C092CB02D092CC02E0921A
S11307E0CD02F092CE026D2F8C2F90E0C9D0DF9114
S11307F0CF91FF90EF90DF90CF90BF90AF909F90FC
S11308008F9008959093BC028093BB0208951F9229
S11308100F920FB60F9211240BB60F922F933F93A2
S11308204F935F936F937F938F939F93AF93BF93F4
S1130830EF93FF93F89407DF7894FF91EF91BF91C2
S1130840AF919F918F917F916F915F914F913F9164
S11308502F910F900BBE0F900FBE0F901F90189505
S1130860E2E0F1E080818F7B808387EC90E0019768
S1130870F1F700C000008081806480830895E1E086
S1130880F1E08081806280838081886080838081C0
S113089082608083808180648083808180628083A1
S11308A0E7E0F1E080818E7F808380818D7F80838B
S11308B080818B7F80838081877F808380818F7E0E
S11308C0808380818F7D808380818F7B8083808102
S11308D08F778083E2E0F1E0808180628083C0CF03
S11308E00895E2E0F1E080818F7D80838081877FBD
S11308F080832AE62A95F1F700C08091060190E0F2
S11309002081286020833FEF49EF20E031504040B0
S11309102040E1F700C000002091060130813062E0
S11309203083982F8827820F911D0895E2E0F1E02B
S11309302081206220838230910521F480818260AD
S1130940808307C0019729F4E2E0F1E080818D7F84
S11309508083772767FD7095872F972F61D226E6CE
S113096036E646EA5FE30CD328D29B01772324F4CE
S113097022273327261B370BC901992756CD089503
S1130980E2E0F1E02081206220838230910521F4AD
S113099080818260808307C0019729F4E2E0F1E05E
S11309A080818D7F8083862F90E03FCD08958130B4
S11309B031F4EBE0F1E080818E7F80830895EBE0F9
S11309C0F1E0808181608083089584B1876884B96F
S11309D0239881E58CBD08958EBD0DB407FEFDCF2F
S11309E00895F3CF0895F8CF089580E0F5DF8EB52C
S11309F008956B9AF8948FE39CE990939700809301
S1130A0096008FE99FE09093990080939800A1E964
S1130A10B0E08C918E7F8C938C9182608C938C91BE
S1130A208B7F8C93E0E9F0E0808182608083808119
S1130A308E7F80838C9188618C9380818068808391
S1130A4080818F7B80837894089524E18202C001A1
S1130A5011248153984F8F3C27E092073CF0803A51
S1130A602FE092072CF08FE99FE002C08FEC97E013
S1130A70909399008093980008958CE08093B80037
S1130A808FEF8093BB0084E08093BC000895ECEB6F
S1130A90F0E0208120FDFDCF6093AE02FC012081B7
S1130AA02093AF0220FD0CC0623050F0DC0111969F
S1130AB0E0EBF2E081E09D9191938F5F8613FBCF91
S1130AC01092AD0288EF8093060285EA8093BC0001
S1130AD008951F920F920FB60F9211240BB60F9226
S1130AE02F933F938F939F93AF93BF93EF93FF9372
S1130AF08091B90090E0FC013897E135F10508F0E8
S1130B0055C0EE58FF4F9FC21092AC02E091AC0268
S1130B108091AE02E81770F481E08E0F8093AC02EE
S1130B20F0E0E155FD4F80818093BB0085E8809320
S1130B30BC0043C08091AD0281608093AD0284E922
S1130B408093BC003AC0E091AC0281E08E0F8093A8
S1130B50AC028091BB00F0E0E155FD4F8083209111
S1130B60AC0230E08091AE0290E00197281739077B
S1130B7024F485EC8093BC0020C085E88093BC00FD
S1130B801CC08091BB00E091AC02F0E0E155FD4F48
S1130B9080838091AD0281608093AD0284E980936B
S1130BA0BC000BC085EA8093BC0007C08091B900EB
S1130BB08093060284E08093BC00FF91EF91BF9183
S1130BC0AF919F918F913F912F910F900BBE0F90FA
S1130BD00FBE0F901F901895E0ECF0E0908195FF08
S1130BE0FDCF8093C6000895E0ECF0E08081882377
S1130BF0ECF78091C60008959093C5008093C400DB
S1130C0088E18093C1008EE08093C20064EF75E0B8
S1130C108CEE95E04BC308955058BB27AA270ED0FD
S1130C2075C166D130F06BD120F031F49F3F11F4DF
S1130C301EF45BC10EF4E095E7FB51C1E92F77D1B7
S1130C4080F3BA17620773078407950718F071F4E5
S1130C509EF58FC10EF4E0950B2EBA2FA02D0B013B
S1130C60B90190010C01CA01A0011124FF27591BED
S1130C7099F0593F50F4503E68F11A16F040A22FF3
S1130C80232F342F4427585FF3CF46953795279564
S1130C90A795F0405395C9F77EF41F16BA0B620B63
S1130CA0730B840BBAF09150A1F0FF0FBB1F661FAA
S1130CB0771F881FC2F70EC0BA0F621F731F841FED
S1130CC048F4879577956795B795F7959E3F08F013
S1130CD0B3CF9395880F08F09927EE0F97958795D2
S1130CE00895D9D008F481E008950CD00FC107D13C
S1130CF040F0FED030F021F45F3F19F0F0C0511104
S1130D0039C1F3C014D198F39923C9F35523B1F32E
S1130D10951B550BBB27AA2762177307840738F066
S1130D209F5F5F4F220F331F441FAA1FA9F333D0C5
S1130D300E2E3AF0E0E830D091505040E695001C79
S1130D40CAF729D0FE2F27D0660F771F881FBB1F35
S1130D50261737074807AB07B0E809F0BB0B802D0F
S1130D60BF01FF2793585F4F2AF09E3F510568F05B
S1130D70B6C000C15F3FECF3983EDCF386957795EF
S1130D806795B795F7959F5FC9F7880F911D96955D
S1130D90879597F90895E1E0660F771F881FBB1FB9
S1130DA0621773078407BA0720F0621B730B840B66
S1130DB0BA0BEE1F88F7E095089504D06894B1113A
S1130DC0D9C00895BCD088F09F5790F0B92F9927C7
S1130DD0B751A0F0D1F0660F771F881F991F1AF042
S1130DE0BA95C9F712C0B13081F0C3D0B1E008950B
S1130DF0C0C0672F782F8827B85F39F0B93FCCF38C
S1130E00869577956795B395D9F73EF49095809537
S1130E10709561957F4F8F4F9F4F0895E89409C057
S1130E2097FB3EF490958095709561957F4F8F4F19
S1130E309F4F9923A9F0F92F96E9BB279395F6952F
S1130E40879577956795B795F111F8CFFAF4BB0FAD
S1130E5011F460FF1BC06F5F7F4F8F4F9F4F16C011
S1130E60882311F096E911C0772321F09EE8872F9B
S1130E70762F05C0662371F096E8862F70E060E057
S1130E802AF09A95660F771F881FDAF7880F9695D0
S1130E90879597F90895990F0008550FAA0BE0E874
S1130EA0FEEF16161706E807F907C0F01216130628
S1130EB0E407F50798F0621B730B840B950B39F468
S1130EC00A2661F0232B242B252B21F408950A26CE
S1130ED009F4A140A6958FEF811D811D089597F90E
S1130EE09F6780E870E060E008959FEF80EC0895CC
S1130EF000240A94161617061806090608950024F5
S1130F000A9412161306140605060895092E03946E
S1130F10000C11F4882352F0BB0F40F4BF2B11F4E2
S1130F2060FF04C06F5F7F4F8F4F9F4F089557FD41
S1130F309058440F551F59F05F3F71F04795880F43
S1130F4097FB991F61F09F3F79F0879508951216DA
S1130F5013061406551FF2CF4695F1DF08C0161686
S1130F6017061806991FF1CF869571056105089437
S1130F700895E894BB2766277727CB0197F908954E
S1130F800BD0C4CFB5DF28F0BADF18F0952309F0F1
S1130F90A6CFABCF1124EECFCADFA0F3959FD1F338
S1130FA0950F50E0551F629FF001729FBB27F00D13
S1130FB0B11D639FAA27F00DB11DAA1F649F662768
S1130FC0B00DA11D661F829F2227B00DA11D621FB7
S1130FD0739FB00DA11D621F839FA00D611D221F71
S1130FE0749F3327A00D611D231F849F600D211D55
S1130FF0822F762F6A2F11249F5750408AF0E1F0F8
S113100088234AF0EE0FFF1FBB1F661F771F881F40
S113101091505040A9F79E3F510570F060CFAACF80
S11310205F3FECF3983EDCF3869577956795B7952B
S1131030F795E7959F5FC1F7FE2B880F911D969555
S1131040879597F90895EE0FFF1F0590F491E02D11
S1131050199497FF03C09195819591090895CF93B1
S1131060DF938230910510F482E090E0E091D902A0
S1131070F091DA0220E030E0A0E0B0E0309739F1FE
S11310804081518148175907B8F04817590771F43E
S113109082819381109729F013969C938E931297D3
S11310A02CC09093DA028093D90227C02115310510
S11310B031F04217530718F0A901DB0101C0EF0119
S11310C09A01BD01DF010280F381E02DD7CF211504
S11310D03105F9F0281B390B2430310580F48A815D
S11310E09B816115710521F0FB019383828304C008
S11310F09093DA028093D902FE01329644C0FE0135
S1131100E20FF31F8193919322503109398328838D
S11311103AC02091D7023091D802232B41F4209178
S11311200202309103023093D8022093D702209117
S11311300002309101022115310541F42DB73EB76B
S11311404091040250910502241B350BE091D70213
S1131150F091D802E217F307A0F42E1B3F0B2817D7
S1131160390778F0AC014E5F5F4F2417350748F01C
S11311704E0F5F1F5093D8024093D70281939193EF
S113118002C0E0E0F0E0CF01DF91CF910895CF936A
S1131190DF93009709F487C0FC013297138212820F
S11311A0C091D902D091DA02209781F42081318153
S11311B0280F391F8091D7029091D8028217930784
S11311C079F5F093D802E093D7026DC0DE0120E0F8
S11311D030E0AE17BF0750F412964D915C9113970F
S11311E09D014115510509F1DA01F3CFB383A283BF
S11311F040815181840F951F8A179B0771F48D914B
S11312009C911197840F951F029691838083129667
S11312108D919C911397938382832115310529F431
S1131220F093DA02E093D9023EC0D9011396FC93FD
S1131230EE9312974D915D91A40FB51FEA17FB072A
S113124079F480819181840F951F0296D9011196BA
S11312509C938E938281938113969C938E93129781
S1131260E0E0F0E08A819B81009719F0FE01EC0137
S1131270F9CFCE01029628813981820F931F2091E4
S1131280D7023091D8022817390769F4309729F426
S11312901092DA021092D90202C013821282D09301
S11312A0D802C093D702DF91CF9108950F931F9373
S11312B0CF93DF93EC018B01009731F46115710535
S11312C019F480E090E037C06EE070E081E090E0D7
S11312D036D2FC010097A9F380E883830115110538
S11312E071F01387028781E883838091DB029091F8
S11312F0DC02892B21F4F093DC02E093DB022097DB
S1131300C9F0D187C0878381826083838091DD02A5
S11313109091DE02892B71F4F093DE02E093DD02FA
S11313208091DF029091E002892B21F4F093E00296
S1131330E093DF02CF01DF91CF911F910F910895C8
S1131340CF93DF93CDB7DEB7FE01369661917191ED
S1131350AF018091DD029091DE0203D0DF91CF9145
S113136008952F923F924F925F926F927F928F9245
S11313709F92AF92BF92CF92DF92EF92FF920F9320
S11313801F93CF93DF93CDB7DEB72C970FB6F894A6
S1131390DEBF0FBECDBF7C016B018A01FC01178249
S11313A01682838181FFB0C1CE0101964C01F70101
S11313B09381F60193FD859193FF81916F018823B9
S11313C009F49EC1853239F493FD859193FF81918F
S11313D06F01853221F4B70190E0E8D1E8CF512CB8
S11313E0312C20E02032A0F48B3269F030F48032CA
S11313F059F0833269F420612CC08D3239F0803386
S113140039F4216026C02260246023C0286021C0F2
S113141027FD27C030ED380F3A3078F426FF06C098
S1131420FAE05F9E300D1124532E13C08AE0389EDB
S1131430300D1124332E20620CC08E3221F426FD8F
S11314405FC1206406C08C3611F4206802C088365F
S113145041F4F60193FD859193FF81916F01811110
S1131460C1CF982F9F7D9554933028F40C5F1F4F64
S1131470FFE3F9830DC0833631F0833771F0833590
S113148009F057C021C0F801808189830E5F1F4F86
S113149044244394512C540114C03801F2E06F0EDB
S11314A0711CF801A080B18026FF03C0652D70E097
S11314B002C06FEF7FEFC5012C876DD12C01830132
S11314C02C852F77222E16C03801F2E06F0E711C86
S11314D0F801A080B18026FF03C0652D70E002C032
S11314E06FEF7FEFC5012C8744D12C012C85206838
S11314F0222E830123FC19C0832D90E0481659063F
S1131500A0F4B70180E290E051D13A94F5CFF5010F
S113151027FC859127FE81915F01B70190E046D1B8
S113152031103A94F1E04F1A51084114510479F7FB
S1131530DEC0843611F0893631F5F80127FF07C083
S113154060817181828193810C5F1F4F08C060812B
S11315507181882777FD8095982F0E5F1F4F2F7616
S1131560B22E97FF09C090958095709561957F4F35
S11315708F4F9F4F2068B22E2AE030E0A40148D15B
S1131580A82EA81843C0853729F42F7EB22E2AE04E
S113159030E025C0F22FF97FBF2E8F36C1F018F44A
S11315A0883579F0ADC0803719F0883721F0A8C0AC
S11315B02F2F2061B22EB4FE0DC08B2D8460B82E67
S11315C009C024FF0AC09F2F9660B92E06C028E0E8
S11315D030E005C020E130E002C020E132E0F80153
S11315E0B7FE07C060817181828193810C5F1F4FB8
S11315F006C06081718180E090E00E5F1F4FA401FE
S113160007D1A82EA818FB2DFF77BF2EB6FE0BC05E
S11316102B2D2E7FA51450F4B4FE0AC0B2FC08C0D2
S11316202B2D2E7E05C07A2C2B2D03C07A2C01C0C5
S1131630752C24FF0DC0FE01EA0DF11D808180335D
S113164011F4297E09C022FF06C07394739404C068
S1131650822F867809F0739423FD12C020FF06C000
S11316605A2C731418F4530C5718732C731460F415
S1131670B70180E290E02C8799D073942C85F6CF43
S1131680731410F4371801C0312C24FF11C0B701B2
S113169080E390E02C878AD02C8522FF16C021FF9E
S11316A003C088E590E002C088E790E0B7010CC071
S11316B0822F867851F021FD02C080E201C08BE2C6
S11316C027FD8DE2B70190E071D0A51430F4B70185
S11316D080E390E06BD05A94F8CFAA94F401EA0D19
S11316E0F11D8081B70190E061D0A110F6CF3320C5
S11316F009F45DCEB70180E290E058D03A94F7CF78
S1131700F7018681978102C08FEF9FEF2C960FB669
S1131710F894DEBF0FBECDBFDF91CF911F910F9123
S1131720FF90EF90DF90CF90BF90AF909F908F90FD
S11317307F906F905F904F903F902F9008950F93FC
S11317401F93CF93DF93869F8001879F100D969FF1
S1131750100D1124C80183DCEC01009721F0A801CD
S113176060E070E011D0CE01DF91CF911F910F9115
S11317700895FC010590615070400110D8F78095E0
S113178090958E0F9F1F0895DC0101C06D93415009
S11317905040E0F70895FC01615070400190011041
S11317A0D8F7809590958E0F9F1F08950F931F93E0
S11317B0CF93DF93182F092FEB018B8181FD03C099
S11317C08FEF9FEF20C082FF10C04E815F812C817C
S11317D03D81421753077CF4E881F9819F012F5F13
S11317E03F4F39832883108306C0E885F985812F0C
S11317F01995892B29F72E813F812F5F3F4F3F8316
S11318002E83812F902FDF91CF911F910F910895F7
S1131810FA01AA27283051F1203181F1E8946F931D
S11318206E7F6E5F7F4F8F4F9F4FAF4FB1E03ED0C3
S1131830B4E03CD0670F781F891F9A1FA11D680F61
S1131840791F8A1F911DA11D6A0F711D811D911D94
S1131850A11D20D009F468943F912AE0269F112409
S11318603019305D3193DEF6CF010895462F47706D
S1131870405D4193B3E00FD0C9F7F6CF462F4F70C8
S1131880405D4A3318F0495D31FD4052419302D026
S1131890A9F7EACFB4E0A6959795879577956795CC
S11318A0BA95C9F700976105710508959B01AC01CC
S11318B00A2E06945795479537952795BA95C9F7F3
S11318C0620F731F841F951FA01D0895F894FFCF06
S11318D00000E1022000F825642063616E5F636FFD
S11318E06E74726F6C6C6572206973204E4F542055
S11318F0696E20636F6E66696775726174696F6E75
S1131900206D6F646520616674657220726573650D
S113191074210A0D006D6F64652076616C75653AFB
S113192020256400436F756C64206E6F74207365AA
S113193074206E6F726D616C206D6F646521204937
S113194020616D20736F727279210A0D00656E74C7
S113195065722063616E20647269766572207465B5
S11319607374200A0D0048656C6C6F2066726F6D8D
S10F1970206E6F64652032210A0D000017
S9030000FC
