:100000000C9438000C9455000C9455000C94550039
:100010000C9455000C9455000C9455000C9455000C
:100020000C9455000C9455000C9455000C945500FC
:100030000C9455000C9455000C9455000C945500EC
:100040000C9455000C9455000C9455000C945500DC
:100050000C9455000C9455000C9455000C945500CC
:100060000C9455000C9455000C9455000C945500BC
:1000700011241FBECFEFD4E0DEBFCDBF11E0A0E062
:10008000B1E0E4E6FFE002C005900D92AC34B107A8
:10009000D9F721E0ACE4B1E001C01D92AA35B20766
:1000A000E1F70E9472010C94B0070C9400008D5F80
:1000B0008093001482E48A95F1F700C080910014C7
:1000C00090E0089582E090E00E94570090934F01E5
:1000D00080934E0181E090E00E94570090934D0183
:1000E00080934C0108958F929F92AF92BF92CF92CE
:1000F000DF92EF92FF92CF93DF9360914E01709168
:100100004F01882777FD8095982F0E94CC029B0194
:10011000AC0160E070E08FE793E40E94CC0120E046
:1001200030E048EC52E40E9431024B015C016091E6
:100130004C0170914D01882777FD8095982F0E9482
:10014000CC029B01AC0160E070E08FE793E40E9479
:10015000CC0120E030E048EC52E40E9431026B0117
:100160007C0182E090E00E945700EC0181E090E089
:100170000E94570020914C0130914D01821B930B3E
:10018000BC01882777FD8095982F0E94CC02A7019B
:1001900096010E9431020E9499026B017C018091BC
:1001A0004E0190914F01BE01681B790B882777FDA6
:1001B0008095982F0E94CC02A50194010E943102E3
:1001C0000E9499024B015C01B401C601DF91CF91FD
:1001D000FF90EF90DF90CF90BF90AF909F908F9067
:1001E00008950E9473009B01AC01FB013A9675973C
:1001F00020F4FC013A967597C8F1263FEFEF3E07D1
:100200008CF4DB01332324F4AA27BB27A61BB70BEE
:10021000FC01552324F4EE27FF27E81BF90BAE174A
:10022000BF073CF52B30310554F0FC01552324F475
:10023000EE27FF27E81BF90B2E173F07ECF4463F8C
:100240005F4FECF4AC01992324F444275527481B55
:10025000590B9B01772324F422273327261B370BC6
:10026000241735077CF083E090E0089580E090E06B
:10027000089581E090E0089582E090E0089583E0A1
:1002800090E0089584E090E0089583E090E00E947B
:1002900057006FEF70E0681B790B882777FD80951A
:1002A000982F0E94CC0223E333E343E250E40E9400
:1002B00031020E949902CB01089584E090E00E94EF
:1002C0005700BC01882777FD8095982F0E94CC02AB
:1002D00023E333E343E250E40E9431020E94990297
:1002E000CB0108958FE190E00E94BF010E94B00110
:1002F0000E946200CFE1D1E02FEF8FE797E021501D
:1003000080409040E1F700C000000E947300D62EAC
:10031000C72EB82EA92E0E9445018C010E945D01B6
:100320007C010E94F100FC01FF27FF93EF93A701DE
:1003300055275F934F93980133273F932F93AF92A5
:10034000BF92CF92DF92DF93CF930E94A3038DB72A
:100350009EB70C960FB6F8949EBF0FBE8DBFCCCF44
:1003600085B7806885BF80B7806280BF08955D9B38
:10037000FECF8CB908955F9BFECF8CB1089590BDE0
:1003800089B988E18AB98EE880BD6BEB71E087EBB3
:1003900091E00E94580308955058BB27AA270ED019
:1003A0004DC13ED130F043D120F031F49F3F11F4E4
:1003B0001EF433C10EF4E095E7FB29C1E92F4FD1BC
:1003C00080F3BA17620773078407950718F071F472
:1003D0009EF567C10EF4E0950B2EBA2FA02D0B01F0
:1003E000B90190010C01CA01A0011124FF27591B7A
:1003F00099F0593F50F4503E68F11A16F040A22F80
:10040000232F342F4427585FF3CF469537952795F0
:10041000A795F0405395C9F77EF41F16BA0B620BEF
:10042000730B840BBAF09150A1F0FF0FBB1F661F36
:10043000771F881FC2F70EC0BA0F621F731F841F79
:1004400048F4879577956795B795F7959E3F08F09F
:10045000B3CF9395880F08F09927EE0F979587955E
:1004600008950CD0EBC0E3D040F0DAD030F021F4A6
:100470005F3F19F0CCC0511115C1CFC0F0D098F337
:100480009923C9F35523B1F3951B550BBB27AA2715
:1004900062177307840738F09F5F5F4F220F331F87
:1004A000441FAA1FA9F333D00E2E3AF0E0E830D053
:1004B00091505040E695001CCAF729D0FE2F27D056
:1004C000660F771F881FBB1F261737074807AB0724
:1004D000B0E809F0BB0B802DBF01FF2793585F4F99
:1004E0002AF09E3F510568F092C0DCC05F3FECF3FC
:1004F000983EDCF3869577956795B795F7959F5F5E
:10050000C9F7880F911D9695879597F90895E1E0B1
:10051000660F771F881FBB1F621773078407BA0710
:1005200020F0621B730B840BBA0BEE1F88F7E0956B
:10053000089504D06894B111B5C0089598D088F09A
:100540009F5790F0B92F9927B751A0F0D1F0660FBF
:10055000771F881F991F1AF0BA95C9F712C0B130DA
:1005600081F09FD0B1E008959CC0672F782F882735
:10057000B85F39F0B93FCCF3869577956795B39519
:10058000D9F73EF490958095709561957F4F8F4F88
:100590009F4F0895E89409C097FB3EF4909580958D
:1005A000709561957F4F8F4F9F4F9923A9F0F92F39
:1005B00096E9BB279395F695879577956795B795B7
:1005C000F111F8CFFAF4BB0F11F460FF1BC06F5F9D
:1005D0007F4F8F4F9F4F16C0882311F096E911C0AF
:1005E000772321F09EE8872F762F05C0662371F0D0
:1005F00096E8862F70E060E02AF09A95660F771FE4
:10060000881FDAF7880F9695879597F9089597F9D7
:100610009F6780E870E060E008959FEF80EC0895A8
:1006200000240A94161617061806090608950024D1
:100630000A9412161306140605060895092E03944B
:10064000000C11F4882352F0BB0F40F4BF2B11F4BF
:1006500060FF04C06F5F7F4F8F4F9F4F089557FD1E
:100660009058440F551F59F05F3F71F04795880F20
:1006700097FB991F61F09F3F79F0879508951216B7
:1006800013061406551FF2CF4695F1DF08C0161663
:1006900017061806991FF1CF869571056105089414
:1006A0000895E894BB2766277727CB0197F908952B
:1006B0000F931F93CF93DF93EC018B01009731F4DD
:1006C0006115710519F480E090E038C06EE070E0CB
:1006D00081E090E00E948905FC010097A1F380E889
:1006E00083830115110571F01387028781E88383E5
:1006F0008091500190915101892B21F4F093510187
:10070000E09350012097C9F0D187C0878381826030
:1007100083838091520190915301892B71F4F0935E
:100720005301E09352018091540190915501892B1E
:1007300021F4F0935501E0935401CF01DF91CF9163
:100740001F910F910895A0E0B0E0E9EAF3E00C9466
:100750008907FE01359661917191AF018091520137
:10076000909153010E94B703E2E00C94A507ACE01E
:10077000B0E0EDEBF3E00C9479077C016B018A01AA
:10078000FC0117821682838181FFBDC1CE010196D3
:100790004C01F7019381F60193FD859193FF8191BF
:1007A0006F01882309F4ABC1853239F493FD85913B
:1007B00093FF81916F01853229F4B70190E00E9487
:1007C000E906E7CF512C312C20E02032A0F48B3207
:1007D00069F030F4803259F0833269F420612CC022
:1007E0008D3239F0803339F4216026C022602460D4
:1007F00023C0286021C027FD27C030ED380F3A30D4
:1008000078F426FF06C0FAE05F9E300D1124532EC7
:1008100013C08AE0389E300D1124332E20620CC0A4
:100820008E3221F426FD6BC1206406C08C3611F493
:10083000206802C0883641F4F60193FD859193FF4C
:1008400081916F018111C1CF982F9F7D9554933075
:1008500028F40C5F1F4FFFE3F9830DC0833631F09E
:10086000833771F0833509F05BC022C0F8018081C5
:1008700089830E5F1F4F44244394512C540115C0AB
:100880003801F2E06F0E711CF801A080B18026FFE4
:1008900003C0652D70E002C06FEF7FEFC5012C87AC
:1008A0000E94DE062C0183012C852F77222E17C093
:1008B0003801F2E06F0E711CF801A080B18026FFB4
:1008C00003C0652D70E002C06FEF7FEFC5012C877C
:1008D0000E94CC062C012C852068222E830123FC4B
:1008E0001BC0832D90E048165906B0F4B70180E292
:1008F00090E00E94E9063A94F4CFF50127FC859137
:1009000027FE81915F01B70190E00E94E906311056
:100910003A94F1E04F1A51084114510471F7E5C0BF
:10092000843611F0893639F5F80127FF07C0608158
:100930007181828193810C5F1F4F08C0608171813A
:10094000882777FD8095982F0E5F1F4F2F76B22E48
:1009500097FF09C090958095709561957F4F8F4F57
:100960009F4F2068B22E2AE030E0A4010E941B07AE
:10097000A82EA81844C0853729F42F7EB22E2AE06D
:1009800030E025C0F22FF97FBF2E8F36C1F018F46A
:10099000883579F0B4C0803719F0883721F0AFC0BE
:1009A0002F2F2061B22EB4FE0DC08B2D8460B82E87
:1009B00009C024FF0AC09F2F9660B92E06C028E008
:1009C00030E005C020E130E002C020E132E0F80173
:1009D000B7FE07C060817181828193810C5F1F4FD8
:1009E00006C06081718180E090E00E5F1F4FA4011E
:1009F0000E941B07A82EA818FB2DFF77BF2EB6FE5E
:100A00000BC02B2D2E7FA51450F4B4FE0AC0B2FCEF
:100A100008C02B2D2E7E05C07A2C2B2D03C07A2CDE
:100A200001C0752C24FF0DC0FE01EA0DF11D80816F
:100A3000803311F4297E09C022FF06C07394739499
:100A400004C0822F867809F0739423FD13C020FF21
:100A500006C05A2C731418F4530C5718732C7314C3
:100A600068F4B70180E290E02C870E94E906739455
:100A70002C85F5CF731410F4371801C0312C24FFE6
:100A800012C0B70180E390E02C870E94E9062C8514
:100A900022FF17C021FF03C088E590E002C088E76D
:100AA00090E0B7010CC0822F867859F021FD02C07A
:100AB00080E201C08BE227FD8DE2B70190E00E9449
:100AC000E906A51438F4B70180E390E00E94E90636
:100AD0005A94F7CFAA94F401EA0DF11D8081B70171
:100AE00090E00E94E906A110F5CF332009F451CE21
:100AF000B70180E290E00E94E9063A94F6CFF70150
:100B00008681978102C08FEF9FEF2C96E2E10C94D3
:100B100095070F931F93CF93DF93869F8001879F45
:100B2000100D969F100D1124C8010E94A505EC011F
:100B3000009729F0A80160E070E00E94D706CE017E
:100B4000DF91CF911F910F910895CF93DF93823062
:100B5000910510F482E090E0E0915801F091590184
:100B600020E030E0A0E0B0E0309739F140815181E1
:100B700048175907B8F04817590771F482819381D3
:100B8000109729F013969C938E9312972CC09093F4
:100B900059018093580127C02115310531F04217C2
:100BA000530718F0A901DB0101C0EF019A01BD0153
:100BB000DF010280F381E02DD7CF21153105F9F057
:100BC000281B390B2430310580F48A819B81611503
:100BD000710521F0FB019383828304C09093590136
:100BE00080935801FE01329644C0FE01E20FF31FCC
:100BF0008193919322503109398328833AC02091FF
:100C0000560130915701232B41F42091020130917C
:100C10000301309357012093560120910001309138
:100C200001012115310541F42DB73EB74091040172
:100C300050910501241B350BE0915601F0915701AD
:100C4000E217F307A0F42E1B3F0B2817390778F0A3
:100C5000AC014E5F5F4F2417350748F04E0F5F1F02
:100C600050935701409356018193919302C0E0E065
:100C7000F0E0CF01DF91CF910895CF93DF930097FC
:100C800009F487C0FC01329713821282C091580187
:100C9000D0915901209781F420813181280F391F8B
:100CA00080915601909157018217930779F5F0933F
:100CB0005701E09356016DC0DE0120E030E0AE1731
:100CC000BF0750F412964D915C9113979D01411509
:100CD000510509F1DA01F3CFB383A2834081518139
:100CE000840F951F8A179B0771F48D919C91119722
:100CF000840F951F02969183808312968D919C910B
:100D00001397938382832115310529F4F0935901B8
:100D1000E09358013EC0D9011396FC93EE931297CD
:100D20004D915D91A40FB51FEA17FB0779F48081FF
:100D30009181840F951F0296D90111969C938E93F1
:100D40008281938113969C938E931297E0E0F0E05A
:100D50008A819B81009719F0FE01EC01F9CFCE0149
:100D6000029628813981820F931F2091560130917C
:100D700057012817390769F4309729F4109259015F
:100D80001092580102C013821282D0935701C0936F
:100D90005601DF91CF910895FC010590615070409C
:100DA0000110D8F7809590958E0F9F1F0895DC0154
:100DB00001C06D9341505040E0F70895FC0161502F
:100DC000704001900110D8F7809590958E0F9F1F6D
:100DD00008950F931F93CF93DF93182F092FEB01E3
:100DE0008B8181FD03C08FEF9FEF20C082FF10C079
:100DF0004E815F812C813D81421753077CF4E8814D
:100E0000F9819F012F5F3F4F39832883108306C0EC
:100E1000E885F985812F0995892B29F72E813F8156
:100E20002F5F3F4F3F832E83812F902FDF91CF91F4
:100E30001F910F910895FA01AA27283051F120310E
:100E400081F1E8946F936E7F6E5F7F4F8F4F9F4F5E
:100E5000AF4FB1E03ED0B4E03CD0670F781F891FA0
:100E60009A1FA11D680F791F8A1F911DA11D6A0F6E
:100E7000711D811D911DA11D20D009F468943F9121
:100E80002AE0269F11243019305D3193DEF6CF0120
:100E90000895462F4770405D4193B3E00FD0C9F7E6
:100EA000F6CF462F4F70405D4A3318F0495D31FD53
:100EB0004052419302D0A9F7EACFB4E0A6959795A6
:100EC000879577956795BA95C9F70097610571057C
:100ED00008959B01AC010A2E0694579547953795C6
:100EE0002795BA95C9F7620F731F841F951FA01D20
:100EF00008952F923F924F925F926F927F928F92BE
:100F00009F92AF92BF92CF92DF92EF92FF920F9398
:100F10001F93CF93DF93CDB7DEB7CA1BDB0B0FB6A2
:100F2000F894DEBF0FBECDBF09942A88398848885F
:100F30005F846E847D848C849B84AA84B984C884F5
:100F4000DF80EE80FD800C811B81AA81B981CE0FEC
:100F5000D11D0FB6F894DEBF0FBECDBFED010895D1
:040F6000F894FFCF33
:100F640000005A012000596F757220766F6963651D
:100F7400206973206D7920636F6D6D616E64000D5F
:100F84000A583A202564097C09593A202564097CC9
:100F940009534C3A202564097C0953523A202564AC
:0C0FA400207C09536469723A2025640027
:00000001FF
