S01500006279676765726E32345F365F322E7372656395
S11300000C9438000C9455000C9455000C94550035
S11300100C9455000C9455000C9455000C94550008
S11300200C9455000C9455000C9455000C945500F8
S11300300C9455000C9455000C9455000C945500E8
S11300400C9455000C9455000C9455000C945500D8
S11300500C9455000C9455000C9455000C945500C8
S11300600C9455000C9455000C9455000C945500B8
S113007011241FBECFEFD4E0DEBFCDBF11E0A0E05E
S1130080B1E0E0E2F5E002C005900D92A630B107C0
S1130090D9F721E0A6E0B1E001C01D92A431B20776
S11300A0E1F70E9473000C948E020C9400008D5FA3
S11300B08093001482E48A95F1F700C080910014C3
S11300C090E0089582E090E00E9457009093090127
S11300D08093080181E090E00E945700909307010B
S11300E08093060108958FE190E00E94EC000E9445
S11300F0DD000E9462000E9482000E94CE0080E027
S113010090E00895E0E0F0E18EEA808381EA808364
S11301108AED808382E1808388EC808388EA80830F
S11301208FE3808385ED808380E8808381E880830A
S113013080E5808389ED808381E2808380E280830F
S113014010828BED808380E380838DEA808310822C
S113015084EA808386EA80838FEA80830895E0E0DE
S1130160F0E192E29083808387E08083089580E0C9
S11301700E94AF0080E094E0E0E0F2E11082019799
S11301800097E1F708950E94AF0080E890E0E0E076
S1130190F2E1108201970097E1F708950E94B700F9
S11301A080E094E0E0E0F2E12FEF208301970097F4
S11301B0E1F786E00E94C300089585B7806885BF93
S11301C080B7806280BF08955D9BFECF8CB908958F
S11301D05F9BFECF8CB1089590BD89B988E18AB93F
S11301E08EE880BD68EE70E084EE90E00E94F90035
S11301F008950F931F93CF93DF93EC018B01009726
S113020031F46115710519F480E090E038C06EE0B6
S113021070E081E090E00E944401FC010097A1F3AA
S113022080E883830115110571F01387028781E843
S1130230838380910A0190910B01892B21F4F0931F
S11302400B01E0930A012097C9F0D187C08783810D
S11302508260838380910C0190910D01892B71F44C
S1130260F0930D01E0930C0180910E0190910F0128
S1130270892B21F4F0930F01E0930E01CF01DF915C
S1130280CF911F910F9108950F931F93CF93DF93F5
S1130290869F8001879F100D969F100D1124C80121
S11302A00E946001EC01009729F0A80160E070E071
S11302B00E948702CE01DF91CF911F910F91089583
S11302C0CF93DF938230910510F482E090E0E091C7
S11302D01201F091130120E030E0A0E0B0E030978B
S11302E039F14081518148175907B8F04817590727
S11302F071F482819381109729F013969C938E93C5
S113030012972CC0909313018093120127C02115DA
S1130310310531F04217530718F0A901DB0101C080
S1130320EF019A01BD01DF010280F381E02DD7CFF7
S113033021153105F9F0281B390B2430310580F4DF
S11303408A819B816115710521F0FB01938382836E
S113035004C09093130180931201FE01329644C0AD
S1130360FE01E20FF31F81939193225031093983E7
S113037028833AC02091100130911101232B41F4BC
S11303802091020130910301309311012093100157
S113039020910001309101012115310541F42DB75F
S11303A03EB74091040150910501241B350BE091A7
S11303B01001F0911101E217F307A0F42E1B3F0B7B
S11303C02817390778F0AC014E5F5F4F24173507C3
S11303D048F04E0F5F1F5093110140931001819319
S11303E0919302C0E0E0F0E0CF01DF91CF91089556
S11303F0CF93DF93009709F487C0FC0132971382EF
S11304001282C0911201D0911301209781F42081AE
S11304103181280F391F80911001909111018217A9
S1130420930779F5F0931101E09310016DC0DE019B
S113043020E030E0AE17BF0750F412964D915C9166
S113044013979D014115510509F1DA01F3CFB383E7
S1130450A28340815181840F951F8A179B0771F4F1
S11304608D919C911197840F951F0296918380839F
S113047012968D919C911397938382832115310554
S113048029F4F0931301E09312013EC0D9011396AD
S1130490FC93EE9312974D915D91A40FB51FEA174B
S11304A0FB0779F480819181840F951F0296D9010D
S11304B011969C938E938281938113969C938E9331
S11304C01297E0E0F0E08A819B81009719F0FE0129
S11304D0EC01F9CFCE01029628813981820F931F56
S11304E020911001309111012817390769F43097D0
S11304F029F4109213011092120102C01382128285
S1130500D0931101C0931001DF91CF910895DC01C4
S113051001C06D9341505040E0F70895F894FFCF27
S10905200000140120009C
S9030000FC
