S01500006279676765726E32345F365F322E7372656395
S11300000C9438000C9455000C941A020C9455006E
S11300100C9455000C9455000C9455000C94550008
S11300200C9455000C9455000C9455000C945500F8
S11300300C9455000C9455000C9455000C945500E8
S11300400C9455000C9455000C9455000C945500D8
S11300500C9455000C9455000C9455000C945500C8
S11300600C9455000C9455000C9455000C945500B8
S113007011241FBECFEFD4E0DEBFCDBF13E0A0E05C
S1130080B1E0ECEFFFE002C005900D92A235B1079C
S1130090D9F723E0A2E5B3E001C01D92A036B20770
S11300A0E1F70E9423030C94FC070C9400008D5F7D
S11300B08093001482E48A95F1F700C080910014C3
S11300C090E00895C49880EC0E948003C49A8FEF56
S11300D09FE20197F1F700C000000895CF93C82F65
S11300E0C49883E00E9480038C2F0E9480030E94A6
S11300F08303C49ACF910895C49881E80E94800331
S113010088B38F6E88BB08951F93CF93DF93182F06
S1130110D62FC42FC49885E00E948003812F0E94AB
S113012080038D2F0E9480038C2F0E948003C49A29
S1130130DF91CF911F910895482F60EE8FE00E94C8
S113014084008EE00E946E00807E0895CF93DF933A
S1130150D82FC62FC49882E00E9480038D2F0E945E
S113016080038C2F0E948003C49ADF91CF9108955D
S11301700E947D030E9462008EE00E946E00982F10
S1130180907E903871F01F928F9386E091E09F9358
S11301908F930E9416050F900F900F900F9081E09F
S11301A008951F9280E88F9384E491E09F938F9346
S11301B00E94160540E660E680E60E94840080E620
S11301C00E946E001F928F9385E591E09F938F9319
S11301D00E94160540E660E680E70E94840080E7FE
S11301E00E946E001F928F9386E691E09F938F93F7
S11301F00E94160560E082E30E94A6008DB79EB7B8
S11302000C960FB6F8949EBF0FBE8DBF80E0089584
S11302100E94B80080E40E949C00803441F086E88B
S113022091E09F938F930E9416050F900F9043E0E7
S113023063E08BE20E9484008B98F8948BB780680B
S11302408BBF85B7877F85BF85B78B7F85BF789444
S11302500895EF92FF920F931F93CF93DF93CDB73F
S1130260DEB72A970FB6F894DEBF0FBECDBF098361
S11302701A832B833C834D835E836F8378878987BE
S11302809A87602F81E30E94A600EA806E2D85E3A1
S11302900E94A600EE2091F08E010D5F1F4F26E311
S11302A0E20E0F2EF6E3FF2EF02DF80161918F017F
S11302B08F2D0E94A600F394FE10F7CF81EB91E0FE
S11302C09F938F930E9416050E947C00FFEF2FE7F7
S11302D034E0F15020403040E1F700C0000080E3FA
S11302E00E946E001F928F9303EC11E01F930F93F3
S11302F00E94160580E30E946E001F928F931F9345
S11303000F930E9416058BE20E946E001F928F933A
S113031081ED91E09F938F930E9416058CE20E94D9
S11303206E001F928F9384EE91E09F938F930E94AF
S113033016058DE20E946E001F928F9383EF91E069
S11303409F938F930E94160580E60E946E001F9271
S11303508F938FEF91E09F938F930E9416058CE209
S11303600E946E000FB6F894DEBF0FBECDBF82FFB1
S113037005C040E064E08CE20E9484002A960FB637
S1130380F894DEBF0FBECDBFDF91CF911F910F91C7
S1130390FF90EF900895BF92CF92DF92EF92FF9279
S11303A00F931F93CF93DF93CDB7DEB72A970FB682
S11303B0F894DEBF0FBECDBF7C01162F1295107FBF
S11303C081E6810F0E946E0085E6810F0E946E0017
S11303D0982F9F70B92E882399F00F2EF6E6DF2E02
S11303E0F02DD10E8E010D5F1F4FC82ECD0C8D2D1B
S11303F00E946E00F80181938F01D394DC10F7CF33
S1130400BA828AE0FE013196D70101900D928A9555
S1130410E1F7C7012A960FB6F894DEBF0FBECDBF31
S1130420DF91CF911F910F91FF90EF90DF90CF90CC
S1130430BF9008951F920F920FB60F921124CF927E
S1130440DF92EF92FF920F931F932F933F934F935B
S11304505F936F937F938F939F93AF93BF93EF9328
S1130460FF93CF93DF93CDB7DEB72A97DEBFCDBF1F
S1130470F89483E192E09F938F930E9416058CE297
S11304800E946E000F900F9080FF33C040E061E047
S11304908CE20E94840060E0CE0101960E94CB01B0
S11304A0CA8040E061E08CE20E94840083E392E031
S11304B09F938F930E9416050F900F90CC2009F400
S11304C050C07E0183E0E80EF11CD12C01E412E05F
S11304D0F70181917F011F928F931F930F930E94C5
S11304E01605D3940F900F900F900F90DC10F0CF5F
S11304F038C081FF2DC040E062E08CE20E9484009D
S113050061E0CE0101960E94CB01CA8087E492E0AB
S11305109F938F930E9416050F900F90CC2009F1A2
S11305207E01F3E0EF0EF11CD12C01E412E0F7019F
S113053081917F011F928F931F930F930E94160541
S1130540D3940F900F900F900F90DC10F0CF09C050
S113055085E592E09F938F930E9416050F900F906C
S113056009C083E892E09F938F930E9416057894C4
S11305700F900F902A960FB6F894DEBF0FBECDBF32
S1130580DF91CF91FF91EF91BF91AF919F918F91A7
S11305907F916F915F914F913F912F911F910F9197
S11305A0FF90EF90DF90CF900F900FBE0F901F90B1
S11305B018950F931F93CF93DF93CDB7DEB72A9788
S11305C00FB6F894DEBF0FBECDBF8AE892E09F93CA
S11305D08F930E94160582E08D8301E013E02EEFD5
S11305E03EE442E05E816F81788589859A850E9428
S11305F0290105E012E029E134E34D815E816F8138
S1130600788589859A850E9429010F900F902A96F2
S11306100FB6F894DEBF0FBECDBFDF91CF911F910F
S11306200F91089582E090E00E9457009093550343
S11306308093540381E090E00E9457009093530309
S11306408093520308958FE190E00E9497030E94E3
S113065088030E9412030E9446030E947D0388E0DF
S113066093E09F938F930E9416050E9408010E94B5
S1130670D9028CE293E09F938F930E9416050F900A
S11306800F900F900F9080E090E00895E0E0F0E18B
S11306908EEA808381EA80838AED808382E180838D
S11306A088EC808388EA80838FE3808385ED808370
S11306B080E8808381E8808380E5808389ED80837E
S11306C081E2808380E2808310828BED808380E3EB
S11306D080838DEA8083108284EA808386EA808323
S11306E08FEA8083089580EB87BBBE9881E58DB93E
S11306F008958FB9779BFECF08950E9473030895E0
S11307000E947903089580E00E9479038FB10895CF
S113071085B7806885BF80B7806280BF08955D9B80
S1130720FECF8CB908955F9BFECF8CB1089590BD28
S113073089B988E18AB98EE880BD63E973E08FE8FE
S113074093E00E94CB040895CF93DF938230910508
S113075010F482E090E0E0915803F091590320E016
S113076030E0A0E0B0E0309739F140815181481782
S11307705907B8F04817590771F48281938110978B
S113078029F013969C938E9312972CC0909359033F
S11307908093580327C02115310531F042175307C0
S11307A018F0A901DB0101C0EF019A01BD01DF01CD
S11307B00280F381E02DD7CF21153105F9F0281BF4
S11307C0390B2430310580F48A819B8161157105D0
S11307D021F0FB019383828304C090935903809397
S11307E05803FE01329644C0FE01E20FF31F8193C9
S11307F0919322503109398328833AC020915603BA
S113080030915703232B41F42091020130910301CD
S11308103093570320935603209100013091010136
S11308202115310541F42DB73EB740910401509193
S11308300501241B350BE0915603F0915703E21791
S1130840F307A0F42E1B3F0B2817390778F0AC01EF
S11308504E5F5F4F2417350748F04E0F5F1F5093CC
S11308605703409356038193919302C0E0E0F0E074
S1130870CF01DF91CF910895CF93DF93009709F4CF
S113088087C0FC01329713821282C0915803D09121
S11308905903209781F420813181280F391F8091D9
S11308A05603909157038217930779F5F0935703F2
S11308B0E09356036DC0DE0120E030E0AE17BF07C1
S11308C050F412964D915C9113979D014115510579
S11308D009F1DA01F3CFB383A28340815181840FFC
S11308E0951F8A179B0771F48D919C911197840F22
S11308F0951F02969183808312968D919C911397F4
S1130900938382832115310529F4F0935903E093ED
S113091058033EC0D9011396FC93EE9312974D9160
S11309205D91A40FB51FEA17FB0779F480819181CB
S1130930840F951F0296D90111969C938E93828100
S1130940938113969C938E931297E0E0F0E08A8152
S11309509B81009719F0FE01EC01F9CFCE010296BC
S113096028813981820F931F2091560330915703B8
S11309702817390769F4309729F410925903109213
S1130980580302C013821282D0935703C0935603B4
S1130990DF91CF9108950F931F93CF93DF93EC01D1
S11309A08B01009731F46115710519F480E090E032
S11309B038C06EE070E081E090E00E94FC06FC012B
S11309C00097A1F380E883830115110571F0138763
S11309D0028781E8838380915A0390915B03892B7A
S11309E021F4F0935B03E0935A032097C9F0D18775
S11309F0C08783818260838380915C0390915D03CF
S1130A00892B71F4F0935D03E0935C0380915E03A2
S1130A1090915F03892B21F4F0935F03E0935E03CD
S1130A20CF01DF91CF911F910F910895A0E0B0E025
S1130A30ECE1F5E00C94D507FE01359661917191D6
S1130A40AF0180915C0390915D030E942A05E2E06E
S1130A500C94F107ACE0B0E0E0E3F5E00C94C507DA
S1130A607C016B018A01FC0117821682838181FF5C
S1130A70BDC1CE0101964C01F7019381F60193FDAE
S1130A80859193FF81916F01882309F4ABC185326D
S1130A9039F493FD859193FF81916F01853229F497
S1130AA0B70190E00E943507E7CF512C312C20E0AC
S1130AB02032A0F48B3269F030F4803259F0833262
S1130AC069F420612CC08D3239F0803339F421600F
S1130AD026C02260246023C0286021C027FD27C0CF
S1130AE030ED380F3A3078F426FF06C0FAE05F9E06
S1130AF0300D1124532E13C08AE0389E300D11247A
S1130B00332E20620CC08E3221F426FD6BC120648A
S1130B1006C08C3611F4206802C0883641F4F60110
S1130B2093FD859193FF81916F018111C1CF982F1E
S1130B309F7D9554933028F40C5F1F4FFFE3F98396
S1130B400DC0833631F0833771F0833509F05BC013
S1130B5022C0F801808189830E5F1F4F442443948F
S1130B60512C540115C03801F2E06F0E711CF801CC
S1130B70A080B18026FF03C0652D70E002C06FEF36
S1130B807FEFC5012C870E942A072C0183012C8545
S1130B902F77222E17C03801F2E06F0E711CF80176
S1130BA0A080B18026FF03C0652D70E002C06FEF06
S1130BB07FEFC5012C870E9418072C012C85206823
S1130BC0222E830123FC1BC0832D90E04816590676
S1130BD0B0F4B70180E290E00E9435073A94F4CF74
S1130BE0F50127FC859127FE81915F01B70190E013
S1130BF00E94350731103A94F1E04F1A510841141C
S1130C00510471F7E5C0843611F0893639F5F801DD
S1130C1027FF07C060817181828193810C5F1F4F20
S1130C2008C060817181882777FD8095982F0E5FB9
S1130C301F4F2F76B22E97FF09C09095809570951F
S1130C4061957F4F8F4F9F4F2068B22E2AE030E08E
S1130C50A4010E946707A82EA81844C0853729F468
S1130C602F7EB22E2AE030E025C0F22FF97FBF2E6E
S1130C708F36C1F018F4883579F0B4C0803719F094
S1130C80883721F0AFC02F2F2061B22EB4FE0DC0E3
S1130C908B2D8460B82E09C024FF0AC09F2F966054
S1130CA0B92E06C028E030E005C020E130E002C0E3
S1130CB020E132E0F801B7FE07C0608171818281D2
S1130CC093810C5F1F4F06C06081718180E090E0CA
S1130CD00E5F1F4FA4010E946707A82EA818FB2DC2
S1130CE0FF77BF2EB6FE0BC02B2D2E7FA51450F41C
S1130CF0B4FE0AC0B2FC08C02B2D2E7E05C07A2C8F
S1130D002B2D03C07A2C01C0752C24FF0DC0FE01CD
S1130D10EA0DF11D8081803311F4297E09C022FF80
S1130D2006C07394739404C0822F867809F0739478
S1130D3023FD13C020FF06C05A2C731418F4530C5F
S1130D405718732C731468F4B70180E290E02C8771
S1130D500E94350773942C85F5CF731410F437185B
S1130D6001C0312C24FF12C0B70180E390E02C872E
S1130D700E9435072C8522FF17C021FF03C088E598
S1130D8090E002C088E790E0B7010CC0822F86781B
S1130D9059F021FD02C080E201C08BE227FD8DE203
S1130DA0B70190E00E943507A51438F4B70180E339
S1130DB090E00E9435075A94F7CFAA94F401EA0D03
S1130DC0F11D8081B70190E00E943507A110F5CF95
S1130DD0332009F451CEB70180E290E00E94350738
S1130DE03A94F6CFF7018681978102C08FEF9FEF87
S1130DF02C96E2E10C94E1070F931F93CF93DF93BA
S1130E00869F8001879F100D969F100D1124C801A5
S1130E100E94A403EC01009729F0A80160E070E0AF
S1130E200E942307CE01DF91CF911F910F91089566
S1130E30FC010590615070400110D8F780959095A1
S1130E408E0F9F1F0895DC0101C06D9341505040E7
S1130E50E0F70895FC016150704001900110D8F74B
S1130E60809590958E0F9F1F08950F931F93CF9396
S1130E70DF93182F092FEB018B8181FD03C08FEFC6
S1130E809FEF20C082FF10C04E815F812C813D8185
S1130E90421753077CF4E881F9819F012F5F3F4F8C
S1130EA039832883108306C0E885F985812F099545
S1130EB0892B29F72E813F812F5F3F4F3F832E835C
S1130EC0812F902FDF91CF911F910F910895FA01F7
S1130ED0AA27283051F1203181F1E8946F936E7F75
S1130EE06E5F7F4F8F4F9F4FAF4FB1E03ED0B4E066
S1130EF03CD0670F781F891F9A1FA11D680F791FA7
S1130F008A1F911DA11D6A0F711D811D911DA11DB7
S1130F1020D009F468943F912AE0269F11243019C7
S1130F20305D3193DEF6CF010895462F4770405D62
S1130F304193B3E00FD0C9F7F6CF462F4F70405D11
S1130F404A3318F0495D31FD4052419302D0A9F76C
S1130F50EACFB4E0A6959795879577956795BA9566
S1130F60C9F700976105710508959B01AC010A2E2C
S1130F7006945795479537952795BA95C9F7620F03
S1130F80731F841F951FA01D08952F923F924F92A7
S1130F905F926F927F928F929F92AF92BF92CF9205
S1130FA0DF92EF92FF920F931F93CF93DF93CDB70E
S1130FB0DEB7CA1BDB0B0FB6F894DEBF0FBECDBF86
S1130FC009942A88398848885F846E847D848C8457
S1130FD09B84AA84B984C884DF80EE80FD800C8160
S1130FE01B81AA81B981CE0FD11D0FB6F894DEBF43
S10F0FF00FBECDBFED010895F894FFCFB3
S1130FFC00006003200025642063616E5F636F6EE4
S113100C74726F6C6C6572206973204E4F54206936
S113101C6E20636F6E66696775726174696F6E209A
S113102C6D6F646520616674657220726573657496
S113103C210A0D006D6F64652076616C75653A202C
S113104C25640A0D00524258304354524C3A202520
S113105C3032780A0D00524258314354524C3A20E3
S113106C253032780A0D006D6F64652076616C75DD
S113107C653A20256400436F756C64206E6F742090
S113108C736574206C6F6F706261636B206D6F6439
S113109C6521204920616D20736F727279210A0DCC
S11310AC007265717565737420746F2073656E645A
S11310BC0A0D0054584354524C20253032780A0DF2
S11310CC004D43505F43414E494E54452025303228
S11310DC780A0D0043414E494E544620253032784F
S11310EC0A0D0045464C4720253032780A0D004D38
S11310FC43505F525842304354524C20253032787E
S113110C0A0D006D65737361676520494E54455231
S113111C52555054494F4E20726563696576656427
S113112C0A0D0044415441204F4E205258300A0DB0
S113113C002564200A0D0044415441204F4E205296
S113114C58310A0D004E6F206D657373616765200D
S113115C617661696C61626C65206F6E2074686580
S113116C2043414E20524558204255464645527321
S113117C0A0D00446F6E650A0D00656E746572206D
S113118C63616E2064726976657220746573742071
S113119C0A0D00596F757220766F69636520697347
S11311AC206D7920636F6D6D616E64000D0A583A81
S11311BC202564097C09593A202564097C09534C7F
S11311CC3A202564097C0953523A202564207C0971
S11311DC6469723A2025640053746174652031008B
S11311EC5374617465203200537461746520330048
S11311FC537461746520340053544152543D3D3D45
S113120C3D3D3D3D3D3D3D3D3D3D3D3D3D3D3D3DFE
S113121C3D3D3D3D3D3D3D3D3D0A0D00454E44208B
S113122C20203D3D3D3D3D3D3D3D3D3D3D3D3D3D18
S113123C3D3D3D3D3D3D3D3D3D3D3D3D3D3D0A0D31
S105124C00009C
S9030000FC
