:100000000C94A0000C94BD000C94BD000C94BD0099
:100010000C94BD000C94BD000C94BD000C94BD006C
:100020000C94BD000C94BD000C94BD000C94BD005C
:100030000C94BD000C94BD000C94BD000C94BD004C
:100040000C94BD000C94BD000C94BD000C94BD003C
:100050000C94BD000C94BD000C94BD000C94BD002C
:100060000C94BD000C94BD000C94BD000C94BD001C
:1000700088D87C3F3F7CD888183C7EFFFF7E3C18A8
:100080001E3F7EFCFC7E3F1EFFCF9BBFBF9BCFFF72
:10009000FFFBFBDFDFFBFBFF183C3C7EFF3C3C3CF7
:1000A000E0380C3EF233191F1F1933F23E0C38E0D2
:1000B000070E7E9F87869C84849C86879F7E0E0782
:1000C0000000C0C0F0F0FCFC0C0C0F0FC3C3FFFF1E
:1000D000FFFFC3C30F0F0C0CFCFCF0F0C0C000000E
:1000E000FCFC0F0F00000F0FFFFF0F0F03030303B4
:1000F000030303030F0FFFFF0F0F00000F0FFCFCA4
:100100003F3FFCFCFCFCFFFF3F3F3C3CF0F030304D
:100110003030F0F03C3C3F3FFFFFFCFCFCFC3F3F3D
:10012000000000003F3FC3C3C0C0C0C0C3C3C0C0C5
:10013000C0C0C3C3C0C0C0C0C3C33F3F00000000B5
:1001400011241FBECFEFD4E0DEBFCDBF11E0A0E091
:10015000B1E0ECE2F7E002C005900D92A630B107E5
:10016000D9F721E0A6E0B1E001C01D92A431B207A9
:10017000E1F70E94DB000C9494030C9400008D5F67
:100180008093001482E48A95F1F700C080910014F6
:1001900090E0089582E090E00E94BF0090930901F2
:1001A0008093080181E090E00E94BF0090930701D6
:1001B0008093060108958FE190E00E94F2010E9471
:1001C000E3010E94CA000E94EA000E94DE0180E072
:1001D00090E00895E0E0F0E18EEA808381EA808398
:1001E0008AED808382E1808388EC808388EA808343
:1001F0008FE3808385ED808380E8808381E880833E
:1002000080E5808389ED808381E2808380E2808342
:1002100010828BED808380E380838DEA808310825F
:1002200084EA808386EA80838FEA80830895E0E011
:10023000F0E192E29083808387E080830895E0E09C
:10024000F0E191E2908380838FE78083089580E0DE
:100250000E94170180E00E941F0180E094E0E0E02E
:10026000F2E1108201970097E1F70895CF93C62F2E
:100270000E9417018C2F0E941F01CF910895880FB3
:10028000991F880F991F880F991FFC01E059FF4F94
:1002900088589F4FA0E0B2E124912C933196E81743
:1002A000F907D1F70895CF93DF93C82FD62F0E9477
:1002B00036018AE090E00E943F018BE090E00E94CE
:1002C0003F018CE090E00E943F018DE090E00E94B1
:1002D0003F016D2F81E08C0F0E9436018EE090E08F
:1002E0000E943F018FE090E00E943F0180E190E09A
:1002F0000E943F0181E190E00E943F016D2F82E06A
:100300008C0F0E94360182E190E00E943F0183E160
:1003100090E00E943F0184E190E00E943F0185E16E
:1003200090E00E943F016D2F83E08C0F0E94360108
:1003300086E190E00E943F0187E190E00E943F014A
:1003400088E190E00E943F0189E190E00E943F0136
:10035000DF91CF910895CF93DF930E942701C0E0F2
:10036000D0E060E070E0CE010E9453012FE38DE009
:1003700093E0215080409040E1F700C000000E94CF
:1003800027012196C530D10561F7C0E0D0E00E9479
:100390002701BE0184E090E00E9453012FE986E826
:1003A00091E0215080409040E1F700C0000023968A
:1003B000C036D10561F7DF91CF9108950E942701E2
:1003C0000E94AB01089585B7806885BF80B78062C1
:1003D00080BF08955D9BFECF8CB908955F9BFECFD3
:1003E0008CB1089590BD89B988E18AB98EE880BD45
:1003F0006EEE71E08AEE91E00E9426030895CF939D
:10040000DF938230910510F482E090E0E0910C01DE
:10041000F0910D0120E030E0A0E0B0E0309739F13C
:100420004081518148175907B8F04817590771F4AE
:1004300082819381109729F013969C938E93129743
:100440002CC090930D0180930C0127C0211531051C
:1004500031F04217530718F0A901DB0101C0EF0189
:100460009A01BD01DF010280F381E02DD7CF211574
:100470003105F9F0281B390B2430310580F48A81CD
:100480009B816115710521F0FB019383828304C078
:1004900090930D0180930C01FE01329644C0FE0141
:1004A000E20FF31F819391932250310939832883FE
:1004B0003AC020910A0130910B01232B41F4209185
:1004C00002013091030130930B0120930A01209126
:1004D0000001309101012115310541F42DB73EB7DE
:1004E0004091040150910501241B350BE0910A0154
:1004F000F0910B01E217F307A0F42E1B3F0B281716
:10050000390778F0AC014E5F5F4F2417350748F08C
:100510004E0F5F1F50930B0140930A0181939193FB
:1005200002C0E0E0F0E0CF01DF91CF910895CF93DA
:10053000DF93009709F487C0FC013297138212827F
:10054000C0910C01D0910D01209781F4208131815F
:10055000280F391F80910A0190910B018217930790
:1005600079F5F0930B01E0930A016DC0DE0120E004
:1005700030E0AE17BF0750F412964D915C9113977F
:100580009D014115510509F1DA01F3CFB383A2832F
:1005900040815181840F951F8A179B0771F48D91BB
:1005A0009C911197840F951F0296918380831296D8
:1005B0008D919C911397938382832115310529F4A2
:1005C000F0930D01E0930C013EC0D9011396FC930A
:1005D000EE9312974D915D91A40FB51FEA17FB079B
:1005E00079F480819181840F951F0296D90111962B
:1005F0009C938E938281938113969C938E931297F2
:10060000E0E0F0E08A819B81009719F0FE01EC01A7
:10061000F9CFCE01029628813981820F931F209154
:100620000A0130910B012817390769F4309729F432
:1006300010920D0110920C0102C013821282D0930D
:100640000B01C0930A01DF91CF9108950F931F937F
:10065000CF93DF93EC018B01009731F461157105A5
:1006600019F480E090E038C06EE070E081E090E046
:100670000E947103FC010097A1F380E883830115B8
:10068000110571F01387028781E8838380910E0141
:1006900090910F01892B21F4F0930F01E0930E014B
:1006A0002097C9F0D187C08783818260838380913E
:1006B000100190911101892B71F4F0931101E093D5
:1006C00010018091120190911301892B21F4F09374
:1006D0001301E0931201CF01DF91CF911F910F9190
:1006E00008950F931F93CF93DF93869F8001879F79
:1006F000100D969F100D1124C8010E94FF01EC01FE
:10070000009729F0A80160E070E00E948D03CE01FF
:10071000DF91CF911F910F910895DC0101C06D937E
:0C07200041505040E0F70895F894FFCFDE
:06072C0000001401200092
:00000001FF
