S01500006279676765726E32345F365F322E7372656395
S11300000C9438000C9455000C944F010C9455003A
S11300100C9455000C9455000C9455000C94550008
S11300200C9455000C9455000C9455000C945500F8
S11300300C9455000C9455000C9455000C945500E8
S11300400C9455000C9455000C9455000C945500D8
S11300500C9455000C9455000C9455000C945500C8
S11300600C9455000C9455000C9455000C945500B8
S113007011241FBECFEFD4E0DEBFCDBF12E0A0E05D
S1130080B1E0E8ECF3E102C005900D92A03CB107A9
S1130090D9F722E0A0ECB2E001C01D92AE3CB20759
S11300A0E1F70E9474030C94E2090C9400008D5F44
S11300B08093001482E48A95F1F700C080910014C3
S11300C090E00895C49880EC0E94DA03C49A83EC0B
S11300D099E00197F1F700C000000895CF93C82F6D
S11300E0C49883E00E94DA038C2F0E94DA030E94F2
S11300F0DD03C49ACF910895C49881E80E94DA037D
S113010088B38F6E88BB08951F93CF93DF93182F06
S1130110D62FC42FC49885E00E94DA03812F0E9451
S1130120DA038D2F0E94DA038C2F0E94DA03C49A1B
S1130130DF91CF911F910895482F60EE8FE00E94C8
S113014084008EE00E946E00807E0895CF93DF933A
S1130150D82FC62FC49882E00E94DA038D2F0E9404
S1130160DA038C2F0E94DA03C49ADF91CF910895A9
S11301700E9462008EE00E946E00982F907E90385C
S113018071F01F928F9386E091E09F938F930E946A
S1130190FC060F900F900F900F9081E0089543E0BC
S11301A06FEF8BE20E94840044E664E680E60E94DE
S11301B0840040E660E680E70E94840060E082E319
S11301C00E94A60080E0089580E00E949C0088239D
S11301D041F083E591E09F938F930E94FC060F907A
S11301E00F90F89485B7886085BF85B78B7F85BFEE
S11301F060E08CE20E94A60060E08DE20E94A6000E
S11302008BB780688BBF789408950F931F93CF9317
S1130210DF93EC01688181E30E94A6000981602FCD
S113022085E30E94A6002296002349F00A5C16E3A7
S11302306991812F0E94A6001F5F1013F9CF0E94BD
S11302407C0080E090EF0197F1F7DF91CF911F914F
S11302500F9108950F931F93CF93DF93EB01182F02
S11302601295107F81E6810F0E946E0085E6810F52
S11302700E946E00982F9F709983882359F01A5911
S11302802296082F010F812F0E946E0089931F5F11
S11302901013F9CFDF91CF911F910F9108951F9201
S11302A00F920FB60F921124FF920F931F932F9367
S11302B03F934F935F936F937F938F939F93AF93EA
S11302C0BF93CF93DF93EF93FF93F8948AE090E08A
S11302D00E948A05EC018CE20E946E0080FF26C019
S11302E0BE0180E00E942A018CE791E09F938F93E6
S11302F00E94FC060F900F908981882309F44AC05C
S1130300F12C0BE811E0FE01EF0DF11D82811F922B
S11303108F931F930F930E94FC06F3940F900F90FA
S11303200F900F908981F81670F334C081FF25C0B7
S1130330BE0181E00E942A0181E991E09F938F939D
S11303400E94FC060F900F908981882319F1F12CEB
S11303500BE811E0FE01EF0DF11D82811F928F93D6
S11303601F930F930E94FC06F3940F900F900F902D
S11303700F908981F81670F30DC060E08CE20E9442
S1130380A600CE010E94220660E08CE20E94A60034
S113039078943CC08CE20E946E00182F8DE20E947B
S11303A06E001F921F931F928F938FE991E09F938A
S11303B08F930E94FC0660E08CE20E94A6008CE20F
S11303C00E946E00182F8DE20E946E001F921F93F0
S11303D01F928F938EEC91E09F938F930E94FC0663
S11303E08CEF91E09F938F930E94FC06CE010E94B4
S11303F0220660E08CE20E94A60078948DB79EB736
S11304000E960FB6F8949EBF0FBE8DBFFF91EF916D
S1130410DF91CF91BF91AF919F918F917F916F9118
S11304205F914F913F912F911F910F91FF900F90EA
S11304300FBE0F901F90189582E090E00E94570025
S11304409093C3028093C20281E090E00E9457001F
S11304509093C1028093C00208958F929F92AF92AD
S1130460BF92CF92DF92EF92FF92CF93DF9360918E
S1130470C2027091C302882777FD8095982F0E944D
S1130480FE049B01AC0160E070E08FE793E40E94FE
S1130490FE0320E030E048EC52E40E9463044B0188
S11304A05C016091C0027091C102882777FD80953C
S11304B0982F0E94FE049B01AC0160E070E08FE77E
S11304C093E40E94FE0320E030E048EC52E40E94F2
S11304D063046B017C0182E090E00E945700EC0110
S11304E081E090E00E9457002091C0023091C10247
S11304F0821B930BBC01882777FD8095982F0E945F
S1130500FE04A70196010E9463040E94CB046B01C0
S11305107C018091C2029091C302BE01681B790BD9
S1130520882777FD8095982F0E94FE04A5019401E9
S11305300E9463040E94CB044B015C01B401C60118
S1130540DF91CF91FF90EF90DF90CF90BF90AF906D
S11305509F908F9008950E942D029B01AC01FB0196
S11305603A96759720F4FC013A967597C8F1263FA0
S1130570EFEF3E078CF4DB01332324F4AA27BB27D7
S1130580A61BB70BFC01552324F4EE27FF27E81B19
S1130590F90BAE17BF073CF52B30310554F0FC01C5
S11305A0552324F4EE27FF27E81BF90B2E173F07EA
S11305B0ECF4463F5F4FECF4AC01992324F4442758
S11305C05527481B590B9B01772324F422273327F3
S11305D0261B370B241735077CF083E090E0089541
S11305E080E090E0089581E090E0089582E090E05A
S11305F0089583E090E0089584E090E0089583E016
S113060090E00E9457006FEF70E0681B790B882719
S113061077FD8095982F0E94FE0423E333E343E2A1
S113062050E40E9463040E94CB04CB01089584E04B
S113063090E00E945700BC01882777FD8095982F91
S11306400E94FE0423E333E343E250E40E94630484
S11306500E94CB04CB01089586B3817090E0089585
S113066086B3827090E00895CF92DF92EF92FF926A
S11306700F931F93CF93DF93CDB7DEB72A970FB6AF
S1130680F894DEBF0FBECDBF0E942D02C62ED82E19
S11306900E94FF02E82E0E941703F82E0E94AB026C
S11306A0082F0E942C03182F0E94300391E0998395
S11306B0CB82DC82ED82FE820F831887898787E0F4
S11306C08A83CE0101960E9405012A960FB6F894FA
S11306D0DEBF0FBECDBFDF91CF911F910F91FF9071
S11306E0EF90DF90CF9008958FE190E00E94F103A6
S11306F00E94E2030E941C020E94A0030E94D703EE
S11307000E94B8000E94E4008FE892E09F938F93C8
S11307100E94FC061F928CE98F9383EB92E09F93D7
S11307208F930E94FC060F900F900F900F900F90E4
S11307300F900E94340380E090EF0197F1F7F9CF16
S1130740E0E0F0E18EEA808381EA80838AED8083B1
S113075082E1808388EC808388EA80838FE38083CE
S113076085ED808380E8808381E8808380E58083D1
S113077089ED808381E2808380E2808310828BED27
S1130780808380E380838DEA8083108284EA80837F
S113079086EA80838FEA8083089580EB87BBBE98C6
S11307A081E58DB908958FB9779BFECF08950E9496
S11307B0CD0308950E94D303089580E00E94D303DB
S11307C08FB1089585B7806885BF80B7806280BF88
S11307D008955D9BFECF8CB908955F9BFECF8CB1CD
S11307E0089590BD89B988E18AB98EE880BD6DEE1F
S11307F073E089EE93E00E94B10608955058BB2738
S1130800AA270ED04DC13ED130F043D120F031F4AF
S11308109F3F11F41EF433C10EF4E095E7FB29C1A8
S1130820E92F4FD180F3BA1762077307840795073E
S113083018F071F49EF567C10EF4E0950B2EBA2FF3
S1130840A02D0B01B90190010C01CA01A0011124D2
S1130850FF27591B99F0593F50F4503E68F11A167E
S1130860F040A22F232F342F4427585FF3CF46950F
S113087037952795A795F0405395C9F77EF41F1631
S1130880BA0B620B730B840BBAF09150A1F0FF0FFB
S1130890BB1F661F771F881FC2F70EC0BA0F621FE7
S11308A0731F841F48F4879577956795B795F795D7
S11308B09E3F08F0B3CF9395880F08F09927EE0F69
S11308C09795879508950CD0EBC0E3D040F0DAD02B
S11308D030F021F45F3F19F0CCC0511115C1CFC0E5
S11308E0F0D098F39923C9F35523B1F3951B550B15
S11308F0BB27AA2762177307840738F09F5F5F4FEF
S1130900220F331F441FAA1FA9F333D00E2E3AF02F
S1130910E0E830D091505040E695001CCAF729D049
S1130920FE2F27D0660F771F881FBB1F2617370798
S11309304807AB07B0E809F0BB0B802DBF01FF27C8
S113094093585F4F2AF09E3F510568F092C0DCC077
S11309505F3FECF3983EDCF3869577956795B79502
S1130960F7959F5FC9F7880F911D9695879597F91D
S11309700895E1E0660F771F881FBB1F6217730796
S11309808407BA0720F0621B730B840BBA0BEE1FAB
S113099088F7E095089504D06894B111B5C008951E
S11309A098D088F09F5790F0B92F9927B751A0F0AD
S11309B0D1F0660F771F881F991F1AF0BA95C9F7EF
S11309C012C0B13081F09FD0B1E008959CC0672F70
S11309D0782F8827B85F39F0B93FCCF3869577959F
S11309E06795B395D9F73EF4909580957095619588
S11309F07F4F8F4F9F4F0895E89409C097FB3EF4B3
S1130A0090958095709561957F4F8F4F9F4F992357
S1130A10A9F0F92F96E9BB279395F69587957795D5
S1130A206795B795F111F8CFFAF4BB0F11F460FF95
S1130A301BC06F5F7F4F8F4F9F4F16C0882311F0ED
S1130A4096E911C0772321F09EE8872F762F05C001
S1130A50662371F096E8862F70E060E02AF09A959C
S1130A60660F771F881FDAF7880F9695879597F991
S1130A70089597F99F6780E870E060E008959FEF1C
S1130A8080EC089500240A94161617061806090621
S1130A90089500240A9412161306140605060895F0
S1130AA0092E0394000C11F4882352F0BB0F40F478
S1130AB0BF2B11F460FF04C06F5F7F4F8F4F9F4FB8
S1130AC0089557FD9058440F551F59F05F3F71F03A
S1130AD04795880F97FB991F61F09F3F79F08795A1
S1130AE00895121613061406551FF2CF4695F1DF2A
S1130AF008C0161617061806991FF1CF86957105BA
S1130B00610508940895E894BB2766277727CB01ED
S1130B1097F90895CF93DF938230910510F482E022
S1130B2090E0E091C602F091C70220E030E0A0E03E
S1130B30B0E0309739F14081518148175907B8F036
S1130B404817590771F482819381109729F01396FD
S1130B509C938E9312972CC09093C7028093C602E5
S1130B6027C02115310531F04217530718F0A901A8
S1130B70DB0101C0EF019A01BD01DF010280F381B5
S1130B80E02DD7CF21153105F9F0281B390B24307E
S1130B90310580F48A819B816115710521F0FB0187
S1130BA09383828304C09093C7028093C602FE019C
S1130BB0329644C0FE01E20FF31F819391932250B9
S1130BC03109398328833AC02091C4023091C50287
S1130BD0232B41F420910201309103013093C5028B
S1130BE02093C402209100013091010121153105A7
S1130BF041F42DB73EB74091040150910501241BE7
S1130C00350BE091C402F091C502E217F307A0F49A
S1130C102E1B3F0B2817390778F0AC014E5F5F4F4E
S1130C202417350748F04E0F5F1F5093C5024093B9
S1130C30C4028193919302C0E0E0F0E0CF01DF9120
S1130C40CF910895CF93DF93009709F487C0FC01F7
S1130C50329713821282C091C602D091C7022097A4
S1130C6081F420813181280F391F8091C402909131
S1130C70C5028217930779F5F093C502E093C40285
S1130C806DC0DE0120E030E0AE17BF0750F41296CD
S1130C904D915C9113979D014115510509F1DA01BC
S1130CA0F3CFB383A28340815181840F951F8A17A8
S1130CB09B0771F48D919C911197840F951F029657
S1130CC09183808312968D919C9113979383828351
S1130CD02115310529F4F093C702E093C6023EC002
S1130CE0D9011396FC93EE9312974D915D91A40F45
S1130CF0B51FEA17FB0779F480819181840F951F52
S1130D000296D90111969C938E93828193811396B6
S1130D109C938E931297E0E0F0E08A819B81009788
S1130D2019F0FE01EC01F9CFCE0102962881398138
S1130D30820F931F2091C4023091C50228173907EE
S1130D4069F4309729F41092C7021092C60202C0C7
S1130D5013821282D093C502C093C402DF91CF9153
S1130D6008950F931F93CF93DF93EC018B010097AA
S1130D7031F46115710519F480E090E038C06EE03B
S1130D8070E081E090E00E94E208FC010097A1F38A
S1130D9080E883830115110571F01387028781E8C8
S1130DA083838091C8029091C902892B21F4F09326
S1130DB0C902E093C8022097C9F0D187C087838114
S1130DC0826083838091CA029091CB02892B71F453
S1130DD0F093CB02E093CA028091CC029091CD02B1
S1130DE0892B21F4F093CD02E093CC02CF01DF9163
S1130DF0CF911F910F910895A0E0B0E0E2E0F7E0F9
S1130E000C94BB09FE01359661917191AF018091FB
S1130E10CA029091CB020E941007E2E00C94D70919
S1130E20ACE0B0E0E6E1F7E00C94AB097C016B01C7
S1130E308A01FC0117821682838181FFBDC1CE0124
S1130E4001964C01F7019381F60193FD859193FF7F
S1130E5081916F01882309F4ABC1853239F493FD84
S1130E60859193FF81916F01853229F4B70190E058
S1130E700E941B09E7CF512C312C20E02032A0F432
S1130E808B3269F030F4803259F0833269F4206196
S1130E902CC08D3239F0803339F4216026C02260B1
S1130EA0246023C0286021C027FD27C030ED380FFF
S1130EB03A3078F426FF06C0FAE05F9E300D112424
S1130EC0532E13C08AE0389E300D1124332E206235
S1130ED00CC08E3221F426FD6BC1206406C08C3612
S1130EE011F4206802C0883641F4F60193FD85911F
S1130EF093FF81916F018111C1CF982F9F7D9554EC
S1130F00933028F40C5F1F4FFFE3F9830DC0833641
S1130F1031F0833771F0833509F05BC022C0F801EA
S1130F20808189830E5F1F4F44244394512C5401C4
S1130F3015C03801F2E06F0E711CF801A080B18079
S1130F4026FF03C0652D70E002C06FEF7FEFC5017F
S1130F502C870E9410092C0183012C852F77222EC7
S1130F6017C03801F2E06F0E711CF801A080B18047
S1130F7026FF03C0652D70E002C06FEF7FEFC5014F
S1130F802C870E94FE082C012C852068222E8301C8
S1130F9023FC1BC0832D90E048165906B0F4B7011A
S1130FA080E290E00E941B093A94F4CFF50127FCFB
S1130FB0859127FE81915F01B70190E00E941B0992
S1130FC031103A94F1E04F1A51084114510471F769
S1130FD0E5C0843611F0893639F5F80127FF07C0DA
S1130FE060817181828193810C5F1F4F08C0608191
S1130FF07181882777FD8095982F0E5F1F4F2F767C
S1131000B22E97FF09C090958095709561957F4F9A
S11310108F4F9F4F2068B22E2AE030E0A4010E9437
S11310204D09A82EA81844C0853729F42F7EB22E66
S11310302AE030E025C0F22FF97FBF2E8F36C1F0B1
S113104018F4883579F0B4C0803719F0883721F066
S1131050AFC02F2F2061B22EB4FE0DC08B2D846043
S1131060B82E09C024FF0AC09F2F9660B92E06C06F
S113107028E030E005C020E130E002C020E132E0A9
S1131080F801B7FE07C060817181828193810C5F92
S11310901F4F06C06081718180E090E00E5F1F4F9A
S11310A0A4010E944D09A82EA818FB2DFF77BF2E7E
S11310B0B6FE0BC02B2D2E7FA51450F4B4FE0AC02F
S11310C0B2FC08C02B2D2E7E05C07A2C2B2D03C01C
S11310D07A2C01C0752C24FF0DC0FE01EA0DF11D10
S11310E08081803311F4297E09C022FF06C07394E5
S11310F0739404C0822F867809F0739423FD13C07F
S113110020FF06C05A2C731418F4530C5718732C70
S1131110731468F4B70180E290E02C870E941B09E5
S113112073942C85F5CF731410F4371801C0312C47
S113113024FF12C0B70180E390E02C870E941B09B2
S11311402C8522FF17C021FF03C088E590E002C070
S113115088E790E0B7010CC0822F867859F021FD12
S113116002C080E201C08BE227FD8DE2B70190E06E
S11311700E941B09A51438F4B70180E390E00E9493
S11311801B095A94F7CFAA94F401EA0DF11D80814A
S1131190B70190E00E941B09A110F5CF332009F498
S11311A051CEB70180E290E00E941B093A94F6CF39
S11311B0F7018681978102C08FEF9FEF2C96E2E1C1
S11311C00C94C7090F931F93CF93DF93869F8001DD
S11311D0879F100D969F100D1124C8010E948A0547
S11311E0EC01009729F0A80160E070E00E94090971
S11311F0CE01DF91CF911F910F910895FC010590CD
S1131200615070400110D8F7809590958E0F9F1F04
S11312100895DC0101C06D9341505040E0F70895FA
S1131220FC016150704001900110D8F780959095B1
S11312308E0F9F1F08950F931F93CF93DF93182F43
S1131240092FEB018B8181FD03C08FEF9FEF20C03D
S113125082FF10C04E815F812C813D81421753076C
S11312607CF4E881F9819F012F5F3F4F3983288304
S1131270108306C0E885F985812F0995892B29F704
S11312802E813F812F5F3F4F3F832E83812F902FED
S1131290DF91CF911F910F910895FA01AA27283069
S11312A051F1203181F1E8946F936E7F6E5F7F4F2F
S11312B08F4F9F4FAF4FB1E03ED0B4E03CD0670FAB
S11312C0781F891F9A1FA11D680F791F8A1F911DFE
S11312D0A11D6A0F711D811D911DA11D20D009F44E
S11312E068943F912AE0269F11243019305D319390
S11312F0DEF6CF010895462F4770405D4193B3E079
S11313000FD0C9F7F6CF462F4F70405D4A3318F01F
S1131310495D31FD4052419302D0A9F7EACFB4E0D0
S1131320A6959795879577956795BA95C9F7009788
S11313306105710508959B01AC010A2E0694579529
S1131340479537952795BA95C9F7620F731F841F80
S1131350951FA01D08952F923F924F925F926F9216
S11313607F928F929F92AF92BF92CF92DF92EF9231
S1131370FF920F931F93CF93DF93CDB7DEB7CA1BB2
S1131380DB0B0FB6F894DEBF0FBECDBF09942A88DD
S1131390398848885F846E847D848C849B84AA8485
S11313A0B984C884DF80EE80FD800C811B81AA8112
S11313B0B981CE0FD11D0FB6F894DEBF0FBECDBFDD
S10B13C0ED010895F894FFCF3C
S11313C80000CE02200025642063616E5F636F6EA7
S11313D874726F6C6C6572206973204E4F54206967
S11313E86E20636F6E66696775726174696F6E20CB
S11313F86D6F6465206166746572207265736574C7
S1131408210A0D006D6F64652076616C75653A205C
S1131418256400436F756C64206E6F742073657463
S1131428206E6F726D616C206D6F64652120492098
S1131438616D20736F727279210A0D004441544121
S1131448204F4E205258303A0A0D002564200A0DC8
S11314580044415441204F4E205258310A0D006235
S113146865666F72653A4D43505F45464C473D2566
S11314783278094D435045464C47094D43505F4324
S1131488414E494E54463D253278090A0D0061669D
S11314987461683A4D43505F45464C473D25327860
S11314A8094D435045464C47094D43505F43414E0F
S11314B8494E54463D253278090A0D003D3D3D3DCF
S11314C83D3D3D3D3D3D3D3D3D3D3D3D3D3D3D3D40
S11314D83D3D3D3D3D3D3D3D3D3D3D3D3D3D3D3D30
S11314E83D3D3D3D3D3D3D0A0D00596F75722076E9
S11314F86F696365206973206D7920636F6D6D6111
S11315086E64000D0A583A202564097C09593A206A
S11315182564097C09534C3A202564097C095352F3
S11315283A202564207C096469723A2025640053B2
S113153874617465203100537461746520320053FA
S113154874617465203300537461746520340053E6
S1131558544152543D3D3D3D3D3D3D3D3D3D3D3D68
S11315683D3D3D3D3D3D3D3D3D3D3D3D3D3D3D3D9F
S11315780A0D0054455354453A2025640A0D0000C9
S9030000FC
