:100000000C9438000C9455000C944A010C94550043
:100010000C9455000C9455000C9455000C9455000C
:100020000C9455000C9455000C9455000C945500FC
:100030000C9455000C9455000C9455000C945500EC
:100040000C9455000C9455000C9455000C945500DC
:100050000C9455000C9455000C9455000C945500CC
:100060000C9455000C9455000C9455000C945500BC
:1000700011241FBECFEFD4E0DEBFCDBF12E0A0E061
:10008000B1E0EEEEFDE002C005900D92AE38B10792
:10009000D9F722E0AEE8B2E001C01D92AC39B20758
:1000A000E1F70E9424020C94F5060C9400008D5F89
:1000B0008093001482E48A95F1F700C080910014C7
:1000C00090E00895C49880EC0E947902C49A83EC71
:1000D00099E00197F1F700C000000895CF93C82F71
:1000E000C49883E00E9479028C2F0E9479020E94BA
:1000F0007C02C49ACF910895C49881E80E94790245
:1001000088B38F6E88BB08951F93CF93DF93182F0A
:10011000D62FC42FC49885E00E947902812F0E94B7
:1001200079028D2F0E9479028C2F0E947902C49A45
:10013000DF91CF911F910895482F60EE8FE00E94CC
:1001400084008EE00E946E00807E0895CF93DF933E
:10015000D82FC62FC49882E00E9479028D2F0E946A
:1001600079028C2F0E947902C49ADF91CF91089571
:100170000E9476020E9462008EE00E946E00982F1C
:10018000907E903871F01F928F9386E091E09F935C
:100190008F930E940F040F900F900F900F9081E0AB
:1001A000089540E660E680E60E94840040E660E64E
:1001B00080E70E94840060E082E30E94A60080E065
:1001C000089580E00E949C00882341F083E591E03F
:1001D0009F938F930E940F040F900F9043E063E072
:1001E0008BE20E9484008B98F8948BB780688BBF59
:1001F00085B7886085BF85B78B7F85BF7894089564
:100200000F931F93CF93DF93EC01688181E30E94EA
:10021000A6000981602F85E30E94A6002296002394
:1002200049F00A5C16E36991812F0E94A6001F5FC6
:100230001013F9CF0E947C0080E090EF0197F1F756
:10024000DF91CF911F910F9108950F931F93CF933B
:10025000DF93EB01182F1295107F81E6810F0E942A
:100260006E0085E6810F0E946E00982F9F70998323
:10027000882359F01A592296082F010F812F0E94C6
:100280006E0089931F5F1013F9CFDF91CF911F91FB
:100290000F9108951F920F920FB60F921124FF92A3
:1002A0000F931F932F933F934F935F936F937F937E
:1002B0008F939F93AF93BF93CF93DF93EF93FF936E
:1002C000F8948AE090E00E949D02EC018CE791E0B6
:1002D0009F938F930E940F048CE20E946E000F90F8
:1002E0000F9080FF2BC040E061E08CE20E94840010
:1002F000BE0180E00E9425018CE991E09F938F93DD
:100300000E940F040F900F908981882309F44AC03E
:10031000F12C0AEA11E0FE01EF0DF11D82811F921E
:100320008F931F930F930E940F04F3940F900F90DD
:100330000F900F908981F81670F334C081FF2AC0A6
:1003400040E062E08CE20E948400BE0181E00E94F5
:10035000250180EB91E09F938F930E940F040F90F3
:100360000F9089818823F1F0F12C0AEA11E0FE0157
:10037000EF0DF11D82811F928F931F930F930E94A7
:100380000F04F3940F900F900F900F908981F8163F
:1003900070F308C08EEB91E09F938F930E940F043F
:1003A0000F900F907894FF91EF91DF91CF91BF91D3
:1003B000AF919F918F917F916F915F914F913F91FD
:1003C0002F911F910F91FF900F900FBE0F901F90D4
:1003D0001895CF93DF938AE090E00E949D02EC0194
:1003E0008CEE91E09F938F930E940F0481E08883AD
:1003F00089E18A8386E28B838FE58C8383E089831E
:10040000CE010E94000185E0888388E48A838AE324
:100410008B8382E08983CE010E9400010F900F90B0
:10042000DF91CF91089582E090E00E945700909371
:1004300091028093900281E090E00E945700909397
:100440008F0280938E0208958FE190E00E949002C7
:100450000E9481020E9413020E943F020E947602C3
:100460000E94B8000E94E1008AE692E09F938F9379
:100470000E940F040E94E9010F900F90FFCFE0E06F
:10048000F0E18EEA808381EA80838AED808382E1D5
:10049000808388EC808388EA80838FE3808385ED86
:1004A000808380E8808381E8808380E5808389ED94
:1004B000808381E2808380E2808310828BED808361
:1004C00080E380838DEA8083108284EA808386EAD9
:1004D00080838FEA8083089580EB87BBBE9881E597
:1004E0008DB908958FB9779BFECF08950E946C0255
:1004F00008950E947202089580E00E9472028FB1F6
:10050000089585B7806885BF80B7806280BF0895F1
:100510005D9BFECF8CB908955F9BFECF8CB1089593
:1005200090BD89B988E18AB98EE880BD6CE872E037
:1005300088E892E00E94C4030895CF93DF9382304D
:10054000910510F482E090E0E0919402F091950220
:1005500020E030E0A0E0B0E0309739F140815181F7
:1005600048175907B8F04817590771F482819381E9
:10057000109729F013969C938E9312972CC090930A
:1005800095028093940227C02115310531F042175E
:10059000530718F0A901DB0101C0EF019A01BD0169
:1005A000DF010280F381E02DD7CF21153105F9F06D
:1005B000281B390B2430310580F48A819B81611519
:1005C000710521F0FB019383828304C0909395020F
:1005D00080939402FE01329644C0FE01E20FF31FA5
:1005E0008193919322503109398328833AC0209115
:1005F000920230919302232B41F420910201309119
:1006000003013093930220939202209100013091D4
:1006100001012115310541F42DB73EB74091040188
:1006200050910501241B350BE0919202F091930249
:10063000E217F307A0F42E1B3F0B2817390778F0B9
:10064000AC014E5F5F4F2417350748F04E0F5F1F18
:1006500050939302409392028193919302C0E0E001
:10066000F0E0CF01DF91CF910895CF93DF93009712
:1006700009F487C0FC01329713821282C091940260
:10068000D0919502209781F420813181280F391F64
:1006900080919202909193028217930779F5F093DB
:1006A0009302E09392026DC0DE0120E030E0AE17CD
:1006B000BF0750F412964D915C9113979D0141151F
:1006C000510509F1DA01F3CFB383A283408151814F
:1006D000840F951F8A179B0771F48D919C91119738
:1006E000840F951F02969183808312968D919C9121
:1006F0001397938382832115310529F4F093950292
:10070000E09394023EC0D9011396FC93EE931297A6
:100710004D915D91A40FB51FEA17FB0779F4808115
:100720009181840F951F0296D90111969C938E9307
:100730008281938113969C938E931297E0E0F0E070
:100740008A819B81009719F0FE01EC01F9CFCE015F
:10075000029628813981820F931F20919202309155
:1007600093022817390769F4309729F410929502FB
:100770001092940202C013821282D0939302C0930B
:100780009202DF91CF9108950F931F93CF93DF9340
:10079000EC018B01009731F46115710519F480E0CB
:1007A00090E038C06EE070E081E090E00E94F505D6
:1007B000FC010097A1F380E883830115110571F016
:1007C0001387028781E88383809196029091970234
:1007D000892B21F4F0939702E09396022097C9F0B9
:1007E000D187C087838182608383809198029091B2
:1007F0009902892B71F4F0939902E0939802809109
:100800009A0290919B02892B21F4F0939B02E09332
:100810009A02CF01DF91CF911F910F910895A0E02F
:10082000B0E0E5E1F4E00C94CE06FE01359661916E
:100830007191AF0180919802909199020E942304D6
:10084000E2E00C94EA06ACE0B0E0E9E2F4E00C94FB
:10085000BE067C016B018A01FC011782168283812E
:1008600081FFBDC1CE0101964C01F7019381F601D4
:1008700093FD859193FF81916F01882309F4ABC1AA
:10088000853239F493FD859193FF81916F01853213
:1008900029F4B70190E00E942E06E7CF512C312CAD
:1008A00020E02032A0F48B3269F030F4803259F02D
:1008B000833269F420612CC08D3239F0803339F4F1
:1008C000216026C02260246023C0286021C027FD4B
:1008D00027C030ED380F3A3078F426FF06C0FAE032
:1008E0005F9E300D1124532E13C08AE0389E300DC8
:1008F0001124332E20620CC08E3221F426FD6BC1F0
:10090000206406C08C3611F4206802C0883641F499
:10091000F60193FD859193FF81916F018111C1CF04
:10092000982F9F7D9554933028F40C5F1F4FFFE361
:10093000F9830DC0833631F0833771F0833509F0C8
:100940005BC022C0F801808189830E5F1F4F442461
:100950004394512C540115C03801F2E06F0E711C04
:10096000F801A080B18026FF03C0652D70E002C0B1
:100970006FEF7FEFC5012C870E9423062C018301B6
:100980002C852F77222E17C03801F2E06F0E711CD4
:10099000F801A080B18026FF03C0652D70E002C081
:1009A0006FEF7FEFC5012C870E9411062C012C856B
:1009B0002068222E830123FC1BC0832D90E0481663
:1009C0005906B0F4B70180E290E00E942E063A94F6
:1009D000F4CFF50127FC859127FE81915F01B701D6
:1009E00090E00E942E0631103A94F1E04F1A51081F
:1009F0004114510471F7E5C0843611F0893639F598
:100A0000F80127FF07C060817181828193810C5FAB
:100A10001F4F08C060817181882777FD8095982FCE
:100A20000E5F1F4F2F76B22E97FF09C090958095CD
:100A3000709561957F4F8F4F9F4F2068B22E2AE0AF
:100A400030E0A4010E946006A82EA81844C0853793
:100A500029F42F7EB22E2AE030E025C0F22FF97F54
:100A6000BF2E8F36C1F018F4883579F0B4C08037C6
:100A700019F0883721F0AFC02F2F2061B22EB4FEBD
:100A80000DC08B2D8460B82E09C024FF0AC09F2F93
:100A90009660B92E06C028E030E005C020E130E0C5
:100AA00002C020E132E0F801B7FE07C06081718129
:100AB000828193810C5F1F4F06C06081718180E04D
:100AC00090E00E5F1F4FA4010E946006A82EA81898
:100AD000FB2DFF77BF2EB6FE0BC02B2D2E7FA5144E
:100AE00050F4B4FE0AC0B2FC08C02B2D2E7E05C007
:100AF0007A2C2B2D03C07A2C01C0752C24FF0DC03D
:100B0000FE01EA0DF11D8081803311F4297E09C0B8
:100B100022FF06C07394739404C0822F867809F074
:100B2000739423FD13C020FF06C05A2C731418F4CD
:100B3000530C5718732C731468F4B70180E290E0DB
:100B40002C870E942E0673942C85F5CF731410F415
:100B5000371801C0312C24FF12C0B70180E390E0A8
:100B60002C870E942E062C8522FF17C021FF03C070
:100B700088E590E002C088E790E0B7010CC0822FC2
:100B8000867859F021FD02C080E201C08BE227FD8A
:100B90008DE2B70190E00E942E06A51438F4B7014B
:100BA00080E390E00E942E065A94F7CFAA94F401B5
:100BB000EA0DF11D8081B70190E00E942E06A11080
:100BC000F5CF332009F451CEB70180E290E00E94C6
:100BD0002E063A94F6CFF7018681978102C08FEFF7
:100BE0009FEF2C96E2E10C94DA060F931F93CF93BC
:100BF000DF93869F8001879F100D969F100D112413
:100C0000C8010E949D02EC01009729F0A80160E054
:100C100070E00E941C06CE01DF91CF911F910F91D1
:100C20000895FC010590615070400110D8F780953F
:100C300090958E0F9F1F0895DC0101C06D93415068
:100C40005040E0F70895FC016150704001900110A0
:100C5000D8F7809590958E0F9F1F08950F931F933F
:100C6000CF93DF93182F092FEB018B8181FD03C0F8
:100C70008FEF9FEF20C082FF10C04E815F812C81DB
:100C80003D81421753077CF4E881F9819F012F5F72
:100C90003F4F39832883108306C0E885F985812F6B
:100CA0000995892B29F72E813F812F5F3F4F3F8385
:100CB0002E83812F902FDF91CF911F910F91089557
:100CC000FA01AA27283051F1203181F1E8946F937D
:100CD0006E7F6E5F7F4F8F4F9F4FAF4FB1E03ED023
:100CE000B4E03CD0670F781F891F9A1FA11D680FC1
:100CF000791F8A1F911DA11D6A0F711D811D911DF4
:100D0000A11D20D009F468943F912AE0269F112468
:100D10003019305D3193DEF6CF010895462F4770CC
:100D2000405D4193B3E00FD0C9F7F6CF462F4F7027
:100D3000405D4A3318F0495D31FD4052419302D085
:100D4000A9F7EACFB4E0A69597958795779567952B
:100D5000BA95C9F700976105710508959B01AC012B
:100D60000A2E06945795479537952795BA95C9F752
:100D7000620F731F841F951FA01D08952F923F922D
:100D80004F925F926F927F928F929F92AF92BF929B
:100D9000CF92DF92EF92FF920F931F93CF93DF9347
:100DA000CDB7DEB7CA1BDB0B0FB6F894DEBF0FBEA4
:100DB000CDBF09942A88398848885F846E847D84F1
:100DC0008C849B84AA84B984C884DF80EE80FD80F3
:100DD0000C811B81AA81B981CE0FD11D0FB6F89469
:0E0DE000DEBF0FBECDBFED010895F894FFCF2A
:100DEE0000009C02200025642063616E5F636F6EBD
:100DFE0074726F6C6C6572206973204E4F5420694B
:100E0E006E20636F6E66696775726174696F6E20AE
:100E1E006D6F6465206166746572207265736574AA
:100E2E00210A0D006D6F64652076616C75653A2040
:100E3E00256400436F756C64206E6F742073657447
:100E4E00206E6F726D616C206D6F6465212049207C
:100E5E00616D20736F727279210A0D006D65737367
:100E6E0061676520494E54455252555054494F4E74
:100E7E002072656369657665640A0D0044415441CC
:100E8E00204F4E205258300A0D002564200A0D00C6
:100E9E0044415441204F4E205258310A0D004E6F9E
:100EAE00206D65737361676520617661696C61623F
:100EBE006C65206F6E207468652043414E2052454C
:100ECE005820425546464552730A0D00656E7465AC
:100EDE00722063616E206472697665722074657328
:100EEE0074200A0D00596F757220766F6963652044
:100EFE006973206D7920636F6D6D616E64000D0AEC
:100F0E00583A202564097C09593A202564097C0940
:100F1E00534C3A202564097C0953523A202564200B
:100F2E007C096469723A20256400537461746520EB
:100F3E0031005374617465203200537461746520FE
:100F4E003300537461746520340053544152543D40
:100F5E003D3D3D3D3D3D3D3D3D3D3D3D3D3D3D3DB3
:0E0F6E003D3D3D3D3D3D3D3D3D3D3D0A0D00BF
:00000001FF
