S01500006279676765726E32345F365F322E7372656395
S11300000C9408040C9425040C9415070C942504F2
S11300100C9425040C9425040C9425040C942504B8
S11300200C9425040C9425040C9425040C942504A8
S11300300C9425040C9425040C9425040C94250498
S11300400C9425040C9425040C9425040C94250488
S11300500C9425040C9425040C9425040C94250478
S11300600C9425040C9425040C9425040C94250468
S113007088D87C3F3F7CD888183C7EFFFF7E3C18A4
S11300801E3F7EFCFC7E3F1EFFCF9BBFBF9BCFFF6E
S1130090FFFBFBDFDFFBFBFF183C3C7EFF3C3C3CF3
S11300A0E0380C3EF233191F1F1933F23E0C38E0CE
S11300B0070E7E9F87869C84849C86879F7E0E077E
S11300C00000C0C0F0F0FCFC0C0C0F0FC3C3FFFF1A
S11300D0FFFFC3C30F0F0C0CFCFCF0F0C0C000000A
S11300E0FCFC0F0F00000F0FFFFF0F0F03030303B0
S11300F0030303030F0FFFFF0F0F00000F0FFCFCA0
S11301003F3FFCFCFCFCFFFF3F3F3C3CF0F0303049
S11301103030F0F03C3C3F3FFFFFFCFCFCFC3F3F39
S1130120000000003F3FC3C3C0C0C0C0C3C3C0C0C1
S1130130C0C0C3C3C0C0C0C0C3C33F3F00000000B1
S1130140F8FCFEFFFFFF3F3F3F3F3F3F3FBFBFBFC6
S1130150BFBFBF3F3F3F3F3F3F3FFFFFFFFEFCF8B6
S1130160FFFFFFFFFFFF00E0FCFEFFFFFFFFFFFFBD
S1130170FFFFFFFFFFFFFEFCE000FFFFFFFFFFFFAD
S1130180FFFFFFFFFFFF00073F7FFFFFFFFFFFFFB2
S1130190FFFFFFFFFFFF7F3F0700FFFFFFFFFFFFA2
S11301A01F3F7FFFFFFFFCFCFCFCFCFCFCFDFDFD96
S11301B0FDFDFDFCFCFCFCFCFCFCFFFFFF7F3F1F86
S11301C000000000005C00000C000C007C287C286F
S11301D058DC68002410480028542840000C000013
S11301E0007884008478000054385400107C100097
S11301F080400000101010000040000060100C004F
S113020038543800487C40004864580044542C005A
S11302101C107C005C5424003854240064140C002A
S113022068542C00485438000048000080480000FE
S113023010284400282828004428100004540800EA
S113024038445C00781478007C5428003844280032
S11302507C4438007C5444007C140400384474000A
S11302607C107C00447C440020403C007C106C00EA
S11302707C4040007C187C0078103C0038443800F6
S11302807C1408003844B8007C14680048542400E6
S1130290047C04007C407C003C603C007C307C009E
S11302A06C106C000C700C0064544C00007C440016
S11302B00C106000447C000008040800808080006A
S11302C000040800304878007C483000304848007A
S11302D030487C00306850001078140090A87800F2
S11302E07C08700050744000808074007C106800AA
S11302F0447C400078107800780870003048300062
S1130300F82810003048F8007810080050582800E9
S1130310083C48003840780038403800782078009D
S11303204830480098A07800486858001078840045
S1130330007C000084781000080408040000000019
S11303400000005F00000007000700147F147F1402
S1130350242A7F2A12231308646236495522500046
S113036005030000001C2241000041221C00082A51
S11303701C2A0808083E0808005030000008080835
S11303800808006060000020100804023E5149453E
S11303903E00427F400042615149462141454B3174
S11303A01814127F1027454545393C4A4949300104
S11303B0710905033649494936064949291E00365B
S11303C036000000563600000008142241141414AC
S11303D014144122140800020151090632497941DA
S11303E03E7E1111117E7F494949363E41414122E9
S11303F07F4141221C7F494949417F090901013E4E
S1130400414151327F0808087F00417F410020406C
S1130410413F017F081422417F404040407F020455
S1130420027F7F0408107F3E4141413E7F09090954
S1130430063E4151215E7F09192946464949493101
S113044001017F01013F4040403F1F2040201F7FAA
S11304502018207F63140814630304780403615193
S113046049454300007F4141020408102041417F77
S11304700000040201020440404040400001020424
S11304800020545454787F48444438384444442029
S1130490384444487F3854545418087E09010208EB
S11304A01454543C7F0804047800447D40002040E8
S11304B0443D00007F10284400417F40007C041824
S11304C004787C0804047838444444387C141414B4
S11304D008081414187C7C08040408485454542054
S11304E0043F4440203C4040207C1C2040201C3CD5
S11304F04030403C44281028440C5050503C446444
S1130500544C44000836410000007F00000041368E
S113051008000201030201000000000000000000C6
S1130520065F5F06000000000707000707000014CD
S11305307F7F147F7F1400242E6B6B3A12000046D9
S11305406630180C666200307A4F5D377A480004D2
S113055007030000000000001C3E6341000000008F
S113056041633E1C000000082A3E1C1C3E2A080869
S1130570083E3E0808000000A0E0600000000008FB
S1130580080808080800000000606000000000601F
S113059030180C060301003E7F594D7F3E00004297
S11305A0427F7F40400000627359496F6600002219
S11305B06349497F360000181C16137F7F100027FB
S11305C06745457D3900003C7E4B49793000000386
S11305D06371190F070000367F49497F3600000612
S11305E04F49693F1E000000006C6C0000000000D1
S11305F0A0EC6C00000000081C36634100000014ED
S113060014141414140000004163361C0800000282
S11306100351590F0600003E7F415D5D1F1E007CA3
S11306207E13137E7C0000417F7F49497F36001C86
S11306303E634141632200417F7F41637F1C00414F
S11306407F7F495D416300417F7F491D0103001C99
S11306503E6341517372007F7F08087F7F00000072
S1130660417F7F41000000307040417F3F010041E5
S11306707F7F081C776300417F7F41406070007F6B
S11306807F060C067F7F007F7F060C187F7F001C8F
S11306903E6341633E1C00417F7F49090F06001EF3
S11306A03F21717F5E0000417F7F19396F4600262C
S11306B0674D597B32000003417F7F410300007F77
S11306C07F40407F7F00001F3F60603F1F00007F2E
S11306D07F3018307F7F0063771C081C7763000726
S11306E04F78784F0700006773594D4763710000D6
S11306F07F7F41410000000103060C1830600000B8
S113070041417F7F000000080C0603060C080080AE
S11307108080808080808000000307040000002027
S11307207454543C784000413F7F44447C38003842
S11307307C44446C280000307848493F7F400038AE
S11307407C54545C180000487E7F490302000098E2
S1130750BCA4A4F87C0400417F7F08047C780000DA
S1130760447D7D4000000040C484FD7D00000041C4
S11307707F7F10386C440000417F7F400000007C84
S11307807C0C180C7C78007C7C04047C7800003899
S11307907C44447C38000084FCF8A4243C180018F1
S11307A03C24A4F8FC8400447C78441C18000048D1
S11307B05C54547424000000043E7F442400003C34
S11307C07C40403C7C40001C3C60603C1C00003C85
S11307D07C6030607C3C00446C3810386C44009C75
S11307E0BCA0A0FC7C00004C64745C4C6400000859
S11307F0083E774141000000000077770000004187
S113080041773E08080000020301030203010000CF
S113081011241FBECFEFD4E0DEBFCDBF12E0A0E0B5
S1130820B1E0EEEFF3E202C005900D92A834B107F7
S1130830D9F722E0A8E4B2E001C01D92A635B207C0
S1130840E1F70E94AD080C94FD110C9400008D5F3B
S11308508093001482E48A95F1F700C0809100141B
S113086090E00895CF92DF92EF92FF920F931F933F
S1130870CF93DF93CDB7DEB72A970FB6F894DEBFD8
S11308800FBECDBF0E94A607C62ED82E0E947808A0
S1130890E82E0E949008F82E0E942408082F0E9437
S11308A0A508182F0E94A90891E09983CB82DC82C5
S11308B0ED82FE820F831887898787E08A83CE01C1
S11308C001960E94CB062A960FB6F894DEBF0FBE9F
S11308D0CDBFDF91CF911F910F91FF90EF90DF90EB
S11308E0CF900895FF920F931F93CF93DF93EC0162
S11308F08B01F42E0E94420928813981233031056D
S1130900F1F124F42130310551F071C02430310566
S113091009F458C02530310509F45FC068C064E6A5
S11309208F2D0E94510985E090E00E94C70960E084
S113093080E00E94510963E070E08A819B810E94FB
S11309409E0960E082E00E945109EE81FF8162E02D
S113095070E0828193810E949E0960E083E00E949E
S11309605109E885F98562E070E0828193810E94F3
S11309709E0983E090E0F8019183808338C060E0B1
S113098080E00E94510963E070E08A819B810E94AB
S11309909E0960E082E00E945109EE81FF8162E0DD
S11309A070E0828193810E949E0960E083E00E944E
S11309B05109E885F98562E070E0828193810E94A3
S11309C09E0915C060E080E00E94510963E070E078
S11309D08A819B810E949E090AC060E080E00E9497
S11309E0510963E070E08A819B810E949E09CE01D7
S11309F0DF91CF911F910F91FF900895EF92FF9295
S1130A000F931F93CF93DF93EB017A018901813018
S1130A109105D1F4F90140815181F701608171811F
S1130A208C819D810E947204EC018B818F938A8159
S1130A308F9380E191E09F938F930E94F50E0F9026
S1130A400F900F900F9072C08230910501F5F9015B
S1130A5040815181CA010196880F991FC80FD91F7F
S1130A60F70160817181888199810E947204EC018F
S1130A708B818F938A818F9380E191E09F938F93F1
S1130A800E94F50E0F900F900F900F904FC083307F
S1130A90910519F564E6F90180810E94510963E02A
S1130AA070E085E191E00E949E09F80180819181C6
S1130AB0019791838083019731F4F70180819181BB
S1130AC0F8019183808364E6F80180810E945109D2
S1130AD085E090E00E94C70929C0049739F564E6CF
S1130AE0F90180810E94510963E070E085E191E0A1
S1130AF00E949E09F80180819181019691838083EF
S1130B00F701208131812F5F3F4F8217930729F42A
S1130B1082E090E0F8019183808364E6F8018081AB
S1130B200E94510985E090E00E94C709CE01DF913F
S1130B30CF911F910F91FF90EF900895AF92BF92C4
S1130B40CF92DF92EF92FF920F931F93CF93DF9395
S1130B506C015B0180E190E00E94830DEC0180E177
S1130B6090E00E94830D7C0180E190E00E94830D5F
S1130B708C0180E190E00E94830DFC0187E191E00B
S1130B809B838A8381E090E099838883DD83CC838F
S1130B90FF82EE82198708878CE191E0D7011396D2
S1130BA09C938E93129782E090E011969C938E937F
S1130BB01596DC93CE93149787E291E0D8011396AF
S1130BC09C938E93129783E090E011969C938E935E
S1130BD01596DC93CE9314971796FC93EE93169781
S1130BE019961C921E9218978CE391E0938382834A
S1130BF084E090E09183808315830483E0E0F0E057
S1130C0083E491E09383828385E090E09183808301
S1130C1015830483A501B601CE010E947204DF91FD
S1130C20CF911F910F91FF90EF90DF90CF90BF90E5
S1130C30AF900895BA9ABB9AC298C3980895009742
S1130C4011F4C29803C0019711F4C29AC39A08958B
S1130C50C49880EC0E94D30BC49A8FEF9FE2019753
S1130C60F1F700C000000895CF93C82FC49883E023
S1130C700E94D30B8C2F0E94D30B0E94D60BC49AD4
S1130C80CF910895C49881E80E94D30B88B38F6EE6
S1130C9088BB08951F93CF93DF93182FD62FC42FAB
S1130CA0C49885E00E94D30B812F0E94D30B8D2F13
S1130CB00E94D30B8C2F0E94D30BC49ADF91CF9147
S1130CC01F910895482F60EE8FE00E944A068EE03F
S1130CD00E943406807E0895CF93DF93D82FC62FC9
S1130CE0C49882E00E94D30B8D2F0E94D30B8C2FCB
S1130CF00E94D30BC49ADF91CF9108950E942806D5
S1130D008EE00E943406982F907E903871F01F92E6
S1130D108F938CE491E09F938F930E94F50E0F9034
S1130D200F900F900F9081E0089543E06FEF8BE2F6
S1130D300E944A0644E664E680E60E944A0640E6CB
S1130D4060E680E70E944A0660E082E30E946C0647
S1130D5080E0089580E00E946206882341F089E9DA
S1130D6091E09F938F930E94F50E0F900F90F8944B
S1130D7085B7886085BF85B78B7F85BF60E08CE2CF
S1130D800E946C0660E08DE20E946C068BB780685E
S1130D908BBF789408950F931F93CF93DF93EC0147
S1130DA0688181E30E946C060981602F85E30E94BB
S1130DB06C062296002349F00A5C16E36991812FA0
S1130DC00E946C061F5F1013F9CF0E94420680E058
S1130DD090EF0197F1F7DF91CF911F910F91089553
S1130DE00F931F93CF93DF93EB01182F1295107F6E
S1130DF081E6810F0E94340685E6810F0E94340645
S1130E00982F9F709983882359F01A592296082F96
S1130E10010F812F0E94340689931F5F1013F9CFAD
S1130E20DF91CF911F910F9108951F920F920FB6EA
S1130E300F921124FF920F931F932F933F934F937D
S1130E405F936F937F938F939F93AF93BF93CF934E
S1130E50DF93EF93FF93F8948AE090E00E94830D70
S1130E60EC018CE20E94340680FF09C0BE0180E0E0
S1130E700E94F0068A8190E00E948F0B34C081FFAB
S1130E8025C0BE0181E00E94F00682EC91E09F93B0
S1130E908F930E94F50E0F900F908981882319F18A
S1130EA0F12C00ED11E0FE01EF0DF11D82811F9286
S1130EB08F931F930F930E94F50EF3940F900F904E
S1130EC00F900F908981F81670F30DC060E08CE2EA
S1130ED00E946C06CE010E941B0E60E08CE20E9410
S1130EE06C0678940CC060E08CE20E946C06CE0123
S1130EF00E941B0E60E08CE20E946C067894FF91C5
S1130F00EF91DF91CF91BF91AF919F918F917F919D
S1130F106F915F914F913F912F911F910F91FF908E
S1130F200F900FBE0F901F90189582E090E00E94E2
S1130F30270490934B0280934A0281E090E00E9440
S1130F402704909349028093480208958F929F92B8
S1130F50AF92BF92CF92DF92EF92FF92CF93DF9343
S1130F6060914A0270914B02882777FD8095982FF3
S1130F700E94F70C9B01AC0160E070E08FE793E402
S1130F800E94F70B20E030E048EC52E40E945C0C35
S1130F904B015C016091480270914902882777FDFA
S1130FA08095982F0E94F70C9B01AC0160E070E0E3
S1130FB08FE793E40E94F70B20E030E048EC52E422
S1130FC00E945C0C6B017C0182E090E00E9427048B
S1130FD0EC0181E090E00E942704209148023091C6
S1130FE04902821B930BBC01882777FD8095982FBB
S1130FF00E94F70CA70196010E945C0C0E94C40C8D
S11310006B017C0180914A0290914B02BE01681BE6
S1131010790B882777FD8095982F0E94F70CA501FE
S113102094010E945C0C0E94C40C4B015C01B4014D
S1131030C601DF91CF91FF90EF90DF90CF90BF90EA
S1131040AF909F908F9008950E94A6079B01AC01DA
S1131050FB013A96759720F4FC013A967597C8F10E
S1131060263FEFEF3E078CF4DB01332324F4AA2759
S1131070BB27A61BB70BFC01552324F4EE27FF273F
S1131080E81BF90BAE17BF073CF52B30310554F0C4
S1131090FC01552324F4EE27FF27E81BF90B2E1738
S11310A03F07ECF4463F5F4FECF4AC01992324F482
S11310B044275527481B590B9B01772324F42227E7
S11310C03327261B370B241735077CF083E090E089
S11310D0089580E090E0089581E090E0089582E032
S11310E090E0089583E090E0089584E090E008950E
S11310F083E090E00E9427046FEF70E0681B790B97
S1131100882777FD8095982F0E94F70C23E333E31B
S113111043E250E40E945C0C0E94C40CCB0108958D
S113112084E090E00E942704BC01882777FD809525
S1131130982F0E94F70C23E333E343E250E40E9428
S11311405C0C0E94C40CCB01089586B3817090E0BE
S1131150089586B3827090E00895CF93DF9300D012
S113116000D0CDB7DEB78FE190E00E94EA0B0E9479
S1131170DB0B0E9495070E9405090E94D00B0E9478
S11311807E060E94AA060E941A0686ED91E09F93AD
S11311908F930E94F50E82E090E09A8389839C836A
S11311A08B8362E070E0CE0103960E949E058C0161
S11311B00E94C80A2FEF8FEF9EE02150804090409C
S11311C0E1F700C0000081E090E00E941F060E9449
S11311D0330A0F900F90E12C01C0EF2C0E943204CF
S11311E080E090EF0197F1F70E942408F82EE110B7
S11311F0F4CF9E012F5F3F4FAE014D5F5F4FB801AB
S113120090E00E94FE048C01E8CFE0E0F0E18EEA79
S1131210808381EA80838AED808382E1808388EC05
S1131220808388EA80838FE3808385ED808380E8F0
S1131230808381E8808380E5808389ED808381E2F7
S1131240808380E2808310828BED808380E38083BF
S11312508DEA8083108284EA808386EA80838FEA21
S113126080830895E0E0F0E192E29083808387E058
S113127080830895E0E0F0E191E2908380838FE73A
S11312808083089580E00E94320980E00E943A0938
S113129080E094E0E0E0F2E1108201970097E1F74A
S11312A00895CF93C62F0E9432098C2F0E943A09C9
S11312B0CF910895E82FF0E0B09763307105A1F461
S11312C0EE0FFF1FEE0FFF1FEE0FFF1FE95EFA4F39
S11312D080E090E0A0E0B2E124912C930196319655
S11312E088309105C9F7089562307105A9F4CF01DA
S11312F0880F991F880F991FE80FF91FE45CFC4FB2
S113130080E090E0A0E0B2E124912C930196319624
S113131085309105C9F70895EE0FFF1FEE0FFF1FEB
S1131320E054FE4F80E090E0A0E0B2E124912C93E1
S11313300196319684309105C9F70895CF92DF92D2
S1131340EF92FF920F931F93CF93DF938C016B0166
S11313507C01C0E0D0E008C0F70181917F01B601B3
S113136090E00E945A092196F80101900020E9F7C3
S11313703197E01BF10BCE17DF0770F3DF91CF91AC
S11313801F910F91FF90EF90DF90CF900895880FF9
S1131390991F880F991F880F991FFC01E059FF4F6F
S11313A088589F4FA0E0B2E124912C933196E8171E
S11313B0F907D1F70895CF93DF93C82FD62F0E9452
S11313C051098AE090E00E94C7098BE090E00E94F6
S11313D0C7098CE090E00E94C7098DE090E00E946C
S11313E0C7096D2F81E08C0F0E9451098EE090E0B7
S11313F00E94C7098FE090E00E94C70980E190E055
S11314000E94C70981E190E00E94C7096D2F82E024
S11314108C0F0E94510982E190E00E94C70983E188
S113142090E00E94C70984E190E00E94C70985E129
S113143090E00E94C7096D2F83E08C0F0E94510930
S113144086E190E00E94C70987E190E00E94C70905
S113145088E190E00E94C70989E190E00E94C709F1
S1131460DF91CF910895CF93C0E060E08C2F0E946C
S1131470DB092FEF8FEF95E0215080409040E1F79A
S113148000C000C00E944209CF5FC53071F7C0E0C0
S11314900E9442096C2F84E00E94DB092FEF8FE742
S11314A091E0215080409040E1F700C000C0CD5F42
S11314B0C03671F7CF9108950E94510986E290E0F9
S11314C00E94C70987E290E00E94C70988E290E081
S11314D00E94C70989E290E00E94C70908950E940A
S11314E0510982E290E00E94C70983E290E00E94E1
S11314F0C70984E290E00E94C70985E290E00E9457
S1131500C70908950E9451098EE190E00E94C7091D
S11315108FE190E00E94C70980E290E00E94C70931
S113152081E290E00E94C70908950E9451098AE16E
S113153090E00E94C7098BE190E00E94C7098CE10A
S113154090E00E94C7098DE190E00E94C7090895C8
S11315500F931F93CF93DF93062F10E0C82FD0E093
S1131560B801CE010E94950AB801CE0101960E94ED
S1131570820AB801CE0102960E946F0AB801CE0118
S113158003960E945C0ADF91CF911F910F910895F9
S11315900E94420960E080E00E945C0A2FEF8FEF16
S11315A092E0215080409040E1F700C000C00E94CA
S11315B0420960E080E00E946F0A60E081E00E94DE
S11315C05C0A2FEF8FEF92E0215080409040E1F7CA
S11315D000C000C00E94420960E080E00E94820ACC
S11315E060E081E00E946F0A60E082E00E945C0A91
S11315F02FEF8FEF92E0215080409040E1F700C040
S113160000C00E94420960E080E00E94A80A2FEF17
S11316108FEF9BE0215080409040E1F700C000C074
S113162060E085E00E94510963E070E089E192E0A6
S11316300E949E092FEF8FEF9BE021508040904045
S1131640E1F700C000C068E284E00E94510963E051
S113165070E08EE192E00E949E0968E285E00E94BB
S1131660510963E070E088E292E00E949E092FEF46
S11316708FEF9BE0215080409040E1F700C000C014
S113168068E285E00E94510963E070E082E392E041
S11316900E949E092FEF8FEF9BE0215080409040E5
S11316A0E1F700C000C068E285E00E94510963E0F0
S11316B070E08CE392E00E949E092FEF8FEF9EE092
S11316C0215080409040E1F700C0000068E281E0D2
S11316D00E94510963E070E086E492E00E949E0952
S11316E08FEF9FE20197F1F700C0000063E070E024
S11316F086E492E00E949E098FEF9FE20197F1F742
S113170000C0000063E070E086E492E00E949E095D
S11317108FEF9FE20197F1F700C0000008950F9347
S11317201F93CF93DF93CDB7DEB72A970FB6F89404
S1131730DEBF0FBECDBF182F092F0E9442090F93A1
S11317401F9386E091E09F938F938E010F5F1F4F4D
S11317501F930F930E94090F68E082E00E945109D1
S113176063E070E0C8010E949E090F900F900F90F3
S11317700F900F900F902A960FB6F894DEBF0FBE0D
S1131780CDBFDF91CF911F910F91089580EB87BB5F
S1131790BE9881E58DB908958FB9779BFECF0895E2
S11317A00E94C60B08950E94CC0B089580E00E940D
S11317B0CC0B8FB1089585B7806885BF80B78062F0
S11317C080BF08955D9BFECF8CB908955F9BFECFCB
S11317D08CB1089590BD89B988E18AB98EE880BD3D
S11317E066EE7BE082EE9BE00E94AA0E08955058BC
S11317F0BB27AA270ED04DC13ED130F043D120F0F3
S113180031F49F3F11F41EF433C10EF4E095E7FB6D
S113181029C1E92F4FD180F3BA17620773078407F0
S1131820950718F071F49EF567C10EF4E0950B2E40
S1131830BA2FA02D0B01B90190010C01CA01A0011E
S11318401124FF27591B99F0593F50F4503E68F179
S11318501A16F040A22F232F342F4427585FF3CFBA
S1131860469537952795A795F0405395C9F77EF48B
S11318701F16BA0B620B730B840BBAF09150A1F0D4
S1131880FF0FBB1F661F771F881FC2F70EC0BA0F5A
S1131890621F731F841F48F4879577956795B795E2
S11318A0F7959E3F08F0B3CF9395880F08F09927DA
S11318B0EE0F9795879508950CD0EBC0E3D040F0D8
S11318C0DAD030F021F45F3F19F0CCC0511115C1CA
S11318D0CFC0F0D098F39923C9F35523B1F3951BE6
S11318E0550BBB27AA2762177307840738F09F5F3D
S11318F05F4F220F331F441FAA1FA9F333D00E2EAC
S11319003AF0E0E830D091505040E695001CCAF718
S113191029D0FE2F27D0660F771F881FBB1F2617DD
S113192037074807AB07B0E809F0BB0B802DBF01B0
S1131930FF2793585F4F2AF09E3F510568F092C0ED
S1131940DCC05F3FECF3983EDCF3869577956795B2
S1131950B795F7959F5FC9F7880F911D9695879561
S113196097F90895E1E0660F771F881FBB1F621780
S113197073078407BA0720F0621B730B840BBA0B3E
S1131980EE1F88F7E095089504D06894B111B5C0AE
S1131990089598D088F09F5790F0B92F9927B751A0
S11319A0A0F0D1F0660F771F881F991F1AF0BA951F
S11319B0C9F712C0B13081F09FD0B1E008959CC046
S11319C0672F782F8827B85F39F0B93FCCF3869515
S11319D077956795B395D9F73EF490958095709572
S11319E061957F4F8F4F9F4F0895E89409C097FBEF
S11319F03EF490958095709561957F4F8F4F9F4FE2
S1131A009923A9F0F92F96E9BB279395F695879525
S1131A1077956795B795F111F8CFFAF4BB0F11F4E8
S1131A2060FF1BC06F5F7F4F8F4F9F4F16C088238F
S1131A3011F096E911C0772321F09EE8872F762FC5
S1131A4005C0662371F096E8862F70E060E02AF006
S1131A509A95660F771F881FDAF7880F96958795F2
S1131A6097F9089597F99F6780E870E060E008951A
S1131A709FEF80EC089500240A94161617061806A2
S1131A800906089500240A9412161306140605067E
S1131A900895092E0394000C11F4882352F0BB0F0F
S1131AA040F4BF2B11F460FF04C06F5F7F4F8F4F72
S1131AB09F4F089557FD9058440F551F59F05F3FAD
S1131AC071F04795880F97FB991F61F09F3F79F05C
S1131AD087950895121613061406551FF2CF4695DE
S1131AE0F1DF08C0161617061806991FF1CF869560
S1131AF07105610508940895E894BB276627772744
S1131B00CB0197F90895CF93DF938230910510F4B8
S1131B1082E090E0E0914E02F0914F0220E030E04C
S1131B20A0E0B0E0309739F140815181481759075E
S1131B30B8F04817590771F482819381109729F0FE
S1131B4013969C938E9312972CC090934F0280937C
S1131B504E0227C02115310531F04217530718F002
S1131B60A901DB0101C0EF019A01BD01DF0102807F
S1131B70F381E02DD7CF21153105F9F0281B390B5E
S1131B802430310580F48A819B816115710521F02F
S1131B90FB019383828304C090934F0280934E028F
S1131BA0FE01329644C0FE01E20FF31F819391932C
S1131BB022503109398328833AC020914C02309154
S1131BC04D02232B41F42091020130910301309303
S1131BD04D0220934C022091000130910101211506
S1131BE0310541F42DB73EB74091040150910501F0
S1131BF0241B350BE0914C02F0914D02E217F307E0
S1131C00A0F42E1B3F0B2817390778F0AC014E5F68
S1131C105F4F2417350748F04E0F5F1F50934D0256
S1131C2040934C028193919302C0E0E0F0E0CF0135
S1131C30DF91CF910895CF93DF93009709F487C084
S1131C40FC01329713821282C0914E02D0914F024E
S1131C50209781F420813181280F391F80914C0213
S1131C6090914D028217930779F5F0934D02E0931A
S1131C704C026DC0DE0120E030E0AE17BF0750F427
S1131C8012964D915C9113979D014115510509F1EF
S1131C90DA01F3CFB383A28340815181840F951F6E
S1131CA08A179B0771F48D919C911197840F951F4E
S1131CB002969183808312968D919C9113979383BE
S1131CC082832115310529F4F0934F02E0934E02EB
S1131CD03EC0D9011396FC93EE9312974D915D91FA
S1131CE0A40FB51FEA17FB0779F480819181840F53
S1131CF0951F0296D90111969C938E9382819381AC
S1131D0013969C938E931297E0E0F0E08A819B8176
S1131D10009719F0FE01EC01F9CFCE01029628815B
S1131D203981820F931F20914C0230914D02281764
S1131D30390769F4309729F410924F0210924E0239
S1131D4002C013821282D0934D02C0934C02DF91E1
S1131D50CF9108950F931F93CF93DF93EC018B01E1
S1131D60009731F46115710519F480E090E038C0F2
S1131D706EE070E081E090E00E94FD10FC010097AD
S1131D80A1F380E883830115110571F0138702879D
S1131D9081E883838091500290915102892B21F430
S1131DA0F0935102E09350022097C9F0D187C08785
S1131DB08381826083838091520290915302892BA4
S1131DC071F4F0935302E093520280915402909183
S1131DD05502892B21F4F0935502E0935402CF016C
S1131DE0DF91CF911F910F910895A0E0B0E0EBEF48
S1131DF0FEE00C94D611FE01359661917191AF010C
S1131E0080915202909153020E942B0FE2E00C94B5
S1131E10F211AEE0B0E0EFE0FFE00C94D4110D89D4
S1131E201E8986E08C831A8309838FEF9FE79E8344
S1131E308D83AE01475E5F4F6F89788DCE01019629
S1131E400E942B0FEF81F885E00FF11F10822E9670
S1131E50E4E00C94F011ACE0B0E0E1E3FFE00C94BA
S1131E60C6117C016B018A01FC01178216828381F1
S1131E7081FFBDC1CE0101964C01F7019381F601AA
S1131E8093FD859193FF81916F01882309F4ABC180
S1131E90853239F493FD859193FF81916F018532E9
S1131EA029F4B70190E00E943611E7CF512C312C70
S1131EB020E02032A0F48B3269F030F4803259F003
S1131EC0833269F420612CC08D3239F0803339F4C7
S1131ED0216026C02260246023C0286021C027FD21
S1131EE027C030ED380F3A3078F426FF06C0FAE008
S1131EF05F9E300D1124532E13C08AE0389E300D9E
S1131F001124332E20620CC08E3221F426FD6BC1C5
S1131F10206406C08C3611F4206802C0883641F46F
S1131F20F60193FD859193FF81916F018111C1CFDA
S1131F30982F9F7D9554933028F40C5F1F4FFFE337
S1131F40F9830DC0833631F0833771F0833509F09E
S1131F505BC022C0F801808189830E5F1F4F442437
S1131F604394512C540115C03801F2E06F0E711CDA
S1131F70F801A080B18026FF03C0652D70E002C087
S1131F806FEF7FEFC5012C870E942B112C01830179
S1131F902C852F77222E17C03801F2E06F0E711CAA
S1131FA0F801A080B18026FF03C0652D70E002C057
S1131FB06FEF7FEFC5012C870E9419112C012C852E
S1131FC02068222E830123FC1BC0832D90E0481639
S1131FD05906B0F4B70180E290E00E9436113A94B9
S1131FE0F4CFF50127FC859127FE81915F01B701AC
S1131FF090E00E94361131103A94F1E04F1A5108E2
S11320004114510471F7E5C0843611F0893639F56D
S1132010F80127FF07C060817181828193810C5F81
S11320201F4F08C060817181882777FD8095982FA4
S11320300E5F1F4F2F76B22E97FF09C090958095A3
S1132040709561957F4F8F4F9F4F2068B22E2AE085
S113205030E0A4010E946811A82EA81844C0853756
S113206029F42F7EB22E2AE030E025C0F22FF97F2A
S1132070BF2E8F36C1F018F4883579F0B4C080379C
S113208019F0883721F0AFC02F2F2061B22EB4FE93
S11320900DC08B2D8460B82E09C024FF0AC09F2F69
S11320A09660B92E06C028E030E005C020E130E09B
S11320B002C020E132E0F801B7FE07C060817181FF
S11320C0828193810C5F1F4F06C06081718180E023
S11320D090E00E5F1F4FA4010E946811A82EA8185B
S11320E0FB2DFF77BF2EB6FE0BC02B2D2E7FA51424
S11320F050F4B4FE0AC0B2FC08C02B2D2E7E05C0DD
S11321007A2C2B2D03C07A2C01C0752C24FF0DC012
S1132110FE01EA0DF11D8081803311F4297E09C08E
S113212022FF06C07394739404C0822F867809F04A
S1132130739423FD13C020FF06C05A2C731418F4A3
S1132140530C5718732C731468F4B70180E290E0B1
S11321502C870E94361173942C85F5CF731410F4D8
S1132160371801C0312C24FF12C0B70180E390E07E
S11321702C870E9436112C8522FF17C021FF03C033
S113218088E590E002C088E790E0B7010CC0822F98
S1132190867859F021FD02C080E201C08BE227FD60
S11321A08DE2B70190E00E943611A51438F4B7010E
S11321B080E390E00E9436115A94F7CFAA94F40178
S11321C0EA0DF11D8081B70190E00E943611A11043
S11321D0F5CF332009F451CEB70180E290E00E949C
S11321E036113A94F6CFF7018681978102C08FEFBA
S11321F09FEF2C96E2E10C94E2110F931F93CF937F
S1132200DF93869F8001879F100D969F100D1124E8
S1132210C8010E94830DEC01009729F0A80160E039
S113222070E00E942411CE01DF91CF911F910F9194
S11322300895FC010590615070400110D8F7809515
S113224090958E0F9F1F0895DC0101C06D9341503E
S11322505040E0F70895FC01615070400190011076
S1132260D8F7809590958E0F9F1F08950F931F9315
S1132270CF93DF93182F092FEB018B8181FD03C0CE
S11322808FEF9FEF20C082FF10C04E815F812C81B1
S11322903D81421753077CF4E881F9819F012F5F48
S11322A03F4F39832883108306C0E885F985812F41
S11322B00995892B29F72E813F812F5F3F4F3F835B
S11322C02E83812F902FDF91CF911F910F9108952D
S11322D0FA01AA27283051F1203181F1E8946F9353
S11322E06E7F6E5F7F4F8F4F9F4FAF4FB1E03ED0F9
S11322F0B4E03CD0670F781F891F9A1FA11D680F97
S1132300791F8A1F911DA11D6A0F711D811D911DC9
S1132310A11D20D009F468943F912AE0269F11243E
S11323203019305D3193DEF6CF010895462F4770A2
S1132330405D4193B3E00FD0C9F7F6CF462F4F70FD
S1132340405D4A3318F0495D31FD4052419302D05B
S1132350A9F7EACFB4E0A695979587957795679501
S1132360BA95C9F700976105710508959B01AC0101
S11323700A2E06945795479537952795BA95C9F728
S1132380620F731F841F951FA01D08952F923F9203
S11323904F925F926F927F928F929F92AF92BF9271
S11323A0CF92DF92EF92FF920F931F93CF93DF931D
S11323B0CDB7DEB7CA1BDB0B0FB6F894DEBF0FBE7A
S11323C0CDBF09942A88398848885F846E847D84C7
S11323D08C849B84AA84B984C884DF80EE80FD80C9
S11323E00C811B81AA81B981CE0FD11D0FB6F8943F
S11123F0DEBF0FBECDBFED010895F894FFCF00
S11323FE00005602200053434F524520256400002E
S113240E25730A0D0020004D656E750053746172BC
S113241E742047616D6500536574204D6F746F723F
S113242E20436F6E74726F6C6C657200536C6964CA
S113243E6572004A6F79737469636B002564206357
S113244E616E5F636F6E74726F6C6C65722069730C
S113245E204E4F5420696E20636F6E6669677572E5
S113246E6174696F6E206D6F646520616674657248
S113247E207265736574210A0D006D6F6465207694
S113248E616C75653A20256400436F756C64206E2B
S113249E6F7420736574206E6F726D616C206D6F36
S11324AE646521204920616D20736F727279210A4F
S11324BE0D0044415441204F4E205258310A0D0014
S11324CE2564200A0D005354415254203D3D3D3D98
S11324DE3D3D3D3D3D3D3D3D3D3D3D3D3D3D3D3D1A
S11324EE3D3D3D3D3D3D3D3D0A0D00613A20256497
S11324FE2C20623A2025640A0D00783A2025642C9B
S113250E20793A2025640A0D004E544E5500434856
S113251E414C4C454E474500544845204F43454198
S113252E4E00504F4C4C5554494F4E0050494E4757
S10B253E20504F4E47003F00FE
S9030000FC
